{
  "abi": [
    {
      "inputs": [
        {
          "internalType": "uint8",
          "name": "_decimals",
          "type": "uint8"
        }
      ],
      "stateMutability": "nonpayable",
      "type": "constructor"
    },
    {
      "anonymous": false,
      "inputs": [
        {
          "indexed": true,
          "internalType": "address",
          "name": "owner",
          "type": "address"
        },
        {
          "indexed": true,
          "internalType": "address",
          "name": "spender",
          "type": "address"
        },
        {
          "indexed": false,
          "internalType": "uint256",
          "name": "value",
          "type": "uint256"
        }
      ],
      "name": "Approval",
      "type": "event"
    },
    {
      "anonymous": false,
      "inputs": [
        {
          "indexed": true,
          "internalType": "address",
          "name": "from",
          "type": "address"
        },
        {
          "indexed": true,
          "internalType": "address",
          "name": "to",
          "type": "address"
        },
        {
          "indexed": false,
          "internalType": "uint256",
          "name": "value",
          "type": "uint256"
        }
      ],
      "name": "Transfer",
      "type": "event"
    },
    {
      "inputs": [],
      "name": "TokenDecimals",
      "outputs": [
        {
          "internalType": "uint8",
          "name": "",
          "type": "uint8"
        }
      ],
      "stateMutability": "view",
      "type": "function"
    },
    {
      "inputs": [
        {
          "internalType": "address",
          "name": "owner",
          "type": "address"
        },
        {
          "internalType": "address",
          "name": "spender",
          "type": "address"
        }
      ],
      "name": "allowance",
      "outputs": [
        {
          "internalType": "uint256",
          "name": "",
          "type": "uint256"
        }
      ],
      "stateMutability": "view",
      "type": "function"
    },
    {
      "inputs": [
        {
          "internalType": "address",
          "name": "spender",
          "type": "address"
        },
        {
          "internalType": "uint256",
          "name": "amount",
          "type": "uint256"
        }
      ],
      "name": "approve",
      "outputs": [
        {
          "internalType": "bool",
          "name": "",
          "type": "bool"
        }
      ],
      "stateMutability": "nonpayable",
      "type": "function"
    },
    {
      "inputs": [
        {
          "internalType": "address",
          "name": "account",
          "type": "address"
        }
      ],
      "name": "balanceOf",
      "outputs": [
        {
          "internalType": "uint256",
          "name": "",
          "type": "uint256"
        }
      ],
      "stateMutability": "view",
      "type": "function"
    },
    {
      "inputs": [],
      "name": "decimals",
      "outputs": [
        {
          "internalType": "uint8",
          "name": "",
          "type": "uint8"
        }
      ],
      "stateMutability": "view",
      "type": "function"
    },
    {
      "inputs": [
        {
          "internalType": "address",
          "name": "spender",
          "type": "address"
        },
        {
          "internalType": "uint256",
          "name": "subtractedValue",
          "type": "uint256"
        }
      ],
      "name": "decreaseAllowance",
      "outputs": [
        {
          "internalType": "bool",
          "name": "",
          "type": "bool"
        }
      ],
      "stateMutability": "nonpayable",
      "type": "function"
    },
    {
      "inputs": [
        {
          "internalType": "address",
          "name": "spender",
          "type": "address"
        },
        {
          "internalType": "uint256",
          "name": "addedValue",
          "type": "uint256"
        }
      ],
      "name": "increaseAllowance",
      "outputs": [
        {
          "internalType": "bool",
          "name": "",
          "type": "bool"
        }
      ],
      "stateMutability": "nonpayable",
      "type": "function"
    },
    {
      "inputs": [],
      "name": "name",
      "outputs": [
        {
          "internalType": "string",
          "name": "",
          "type": "string"
        }
      ],
      "stateMutability": "view",
      "type": "function"
    },
    {
      "inputs": [],
      "name": "symbol",
      "outputs": [
        {
          "internalType": "string",
          "name": "",
          "type": "string"
        }
      ],
      "stateMutability": "view",
      "type": "function"
    },
    {
      "inputs": [],
      "name": "totalSupply",
      "outputs": [
        {
          "internalType": "uint256",
          "name": "",
          "type": "uint256"
        }
      ],
      "stateMutability": "view",
      "type": "function"
    },
    {
      "inputs": [
        {
          "internalType": "address",
          "name": "to",
          "type": "address"
        },
        {
          "internalType": "uint256",
          "name": "amount",
          "type": "uint256"
        }
      ],
      "name": "transfer",
      "outputs": [
        {
          "internalType": "bool",
          "name": "",
          "type": "bool"
        }
      ],
      "stateMutability": "nonpayable",
      "type": "function"
    },
    {
      "inputs": [
        {
          "internalType": "address",
          "name": "from",
          "type": "address"
        },
        {
          "internalType": "address",
          "name": "to",
          "type": "address"
        },
        {
          "internalType": "uint256",
          "name": "amount",
          "type": "uint256"
        }
      ],
      "name": "transferFrom",
      "outputs": [
        {
          "internalType": "bool",
          "name": "",
          "type": "bool"
        }
      ],
      "stateMutability": "nonpayable",
      "type": "function"
    }
  ],
  "bytecode": {
    "object": "0x60806040526005805460ff191660121790553480156200001e57600080fd5b5060405162000bfe38038062000bfe8339810160408190526200004191620001a9565b6040518060400160405280600f81526020016e746f6b656e466f7254657374696e6760881b8152506040518060400160405280600381526020016215119560ea1b815250816003908162000096919062000279565b506004620000a5828262000279565b505050620000c43369021e19e0c9bab2400000620000de60201b60201c565b6005805460ff191660ff929092169190911790556200036c565b6001600160a01b038216620001395760405162461bcd60e51b815260206004820152601f60248201527f45524332303a206d696e7420746f20746865207a65726f206164647265737300604482015260640160405180910390fd5b80600260008282546200014d919062000345565b90915550506001600160a01b038216600081815260208181526040808320805486019055518481527fddf252ad1be2c89b69c2b068fc378daa952ba7f163c4a11628f55a4df523b3ef910160405180910390a35050565b505050565b600060208284031215620001bc57600080fd5b815160ff81168114620001ce57600080fd5b9392505050565b634e487b7160e01b600052604160045260246000fd5b600181811c908216806200020057607f821691505b6020821081036200022157634e487b7160e01b600052602260045260246000fd5b50919050565b601f821115620001a457600081815260208120601f850160051c81016020861015620002505750805b601f850160051c820191505b8181101562000271578281556001016200025c565b505050505050565b81516001600160401b03811115620002955762000295620001d5565b620002ad81620002a68454620001eb565b8462000227565b602080601f831160018114620002e55760008415620002cc5750858301515b600019600386901b1c1916600185901b17855562000271565b600085815260208120601f198616915b828110156200031657888601518255948401946001909101908401620002f5565b5085821015620003355787850151600019600388901b60f8161c191681555b5050505050600190811b01905550565b600082198211156200036757634e487b7160e01b600052601160045260246000fd5b500190565b610882806200037c6000396000f3fe608060405234801561001057600080fd5b50600436106100b45760003560e01c80633950935111610071578063395093511461014957806370a082311461015c57806395d89b4114610185578063a457c2d71461018d578063a9059cbb146101a0578063dd62ed3e146101b357600080fd5b806306fdde03146100b95780630910d1b0146100d7578063095ea7b3146100f657806318160ddd1461011957806323b872dd1461012b578063313ce5671461013e575b600080fd5b6100c16101c6565b6040516100ce91906106c0565b60405180910390f35b6005546100e49060ff1681565b60405160ff90911681526020016100ce565b610109610104366004610731565b610258565b60405190151581526020016100ce565b6002545b6040519081526020016100ce565b61010961013936600461075b565b610270565b60055460ff166100e4565b610109610157366004610731565b610294565b61011d61016a366004610797565b6001600160a01b031660009081526020819052604090205490565b6100c16102b6565b61010961019b366004610731565b6102c5565b6101096101ae366004610731565b610345565b61011d6101c13660046107b9565b610353565b6060600380546101d5906107ec565b80601f0160208091040260200160405190810160405280929190818152602001828054610201906107ec565b801561024e5780601f106102235761010080835404028352916020019161024e565b820191906000526020600020905b81548152906001019060200180831161023157829003601f168201915b5050505050905090565b60003361026681858561037e565b5060019392505050565b60003361027e8582856104a2565b61028985858561051c565b506001949350505050565b6000336102668185856102a78383610353565b6102b19190610826565b61037e565b6060600480546101d5906107ec565b600033816102d38286610353565b9050838110156103385760405162461bcd60e51b815260206004820152602560248201527f45524332303a2064656372656173656420616c6c6f77616e63652062656c6f77604482015264207a65726f60d81b60648201526084015b60405180910390fd5b610289828686840361037e565b60003361026681858561051c565b6001600160a01b03918216600090815260016020908152604080832093909416825291909152205490565b6001600160a01b0383166103e05760405162461bcd60e51b8152602060048201526024808201527f45524332303a20617070726f76652066726f6d20746865207a65726f206164646044820152637265737360e01b606482015260840161032f565b6001600160a01b0382166104415760405162461bcd60e51b815260206004820152602260248201527f45524332303a20617070726f766520746f20746865207a65726f206164647265604482015261737360f01b606482015260840161032f565b6001600160a01b0383811660008181526001602090815260408083209487168084529482529182902085905590518481527f8c5be1e5ebec7d5bd14f71427d1e84f3dd0314c0f7b2291e5b200ac8c7c3b925910160405180910390a3505050565b60006104ae8484610353565b9050600019811461051657818110156105095760405162461bcd60e51b815260206004820152601d60248201527f45524332303a20696e73756666696369656e7420616c6c6f77616e6365000000604482015260640161032f565b610516848484840361037e565b50505050565b6001600160a01b0383166105805760405162461bcd60e51b815260206004820152602560248201527f45524332303a207472616e736665722066726f6d20746865207a65726f206164604482015264647265737360d81b606482015260840161032f565b6001600160a01b0382166105e25760405162461bcd60e51b815260206004820152602360248201527f45524332303a207472616e7366657220746f20746865207a65726f206164647260448201526265737360e81b606482015260840161032f565b6001600160a01b0383166000908152602081905260409020548181101561065a5760405162461bcd60e51b815260206004820152602660248201527f45524332303a207472616e7366657220616d6f756e7420657863656564732062604482015265616c616e636560d01b606482015260840161032f565b6001600160a01b03848116600081815260208181526040808320878703905593871680835291849020805487019055925185815290927fddf252ad1be2c89b69c2b068fc378daa952ba7f163c4a11628f55a4df523b3ef910160405180910390a3610516565b600060208083528351808285015260005b818110156106ed578581018301518582016040015282016106d1565b818111156106ff576000604083870101525b50601f01601f1916929092016040019392505050565b80356001600160a01b038116811461072c57600080fd5b919050565b6000806040838503121561074457600080fd5b61074d83610715565b946020939093013593505050565b60008060006060848603121561077057600080fd5b61077984610715565b925061078760208501610715565b9150604084013590509250925092565b6000602082840312156107a957600080fd5b6107b282610715565b9392505050565b600080604083850312156107cc57600080fd5b6107d583610715565b91506107e360208401610715565b90509250929050565b600181811c9082168061080057607f821691505b60208210810361082057634e487b7160e01b600052602260045260246000fd5b50919050565b6000821982111561084757634e487b7160e01b600052601160045260246000fd5b50019056fea26469706673582212201a44912d64f46c959e13845f7f6bcbbcadac224cbcee8788dd35ca232b2f49fa64736f6c634300080f0033",
    "linkReferences": {}
  },
  "methodIdentifiers": {
    "TokenDecimals()": "0910d1b0",
    "allowance(address,address)": "dd62ed3e",
    "approve(address,uint256)": "095ea7b3",
    "balanceOf(address)": "70a08231",
    "decimals()": "313ce567",
    "decreaseAllowance(address,uint256)": "a457c2d7",
    "increaseAllowance(address,uint256)": "39509351",
    "name()": "06fdde03",
    "symbol()": "95d89b41",
    "totalSupply()": "18160ddd",
    "transfer(address,uint256)": "a9059cbb",
    "transferFrom(address,address,uint256)": "23b872dd"
  },
  "id": 23
}