{
  "abi": [
    {
      "inputs": [
        {
          "internalType": "address",
          "name": "_wethAddress",
          "type": "address"
        }
      ],
      "stateMutability": "nonpayable",
      "type": "constructor"
    },
    {
      "anonymous": false,
      "inputs": [
        {
          "indexed": true,
          "internalType": "address",
          "name": "previousOwner",
          "type": "address"
        },
        {
          "indexed": true,
          "internalType": "address",
          "name": "newOwner",
          "type": "address"
        }
      ],
      "name": "OwnershipTransferred",
      "type": "event"
    },
    {
      "inputs": [],
      "name": "WETH_ADDRESS",
      "outputs": [
        {
          "internalType": "address",
          "name": "",
          "type": "address"
        }
      ],
      "stateMutability": "view",
      "type": "function"
    },
    {
      "inputs": [
        {
          "internalType": "address payable",
          "name": "_to",
          "type": "address"
        },
        {
          "internalType": "uint256",
          "name": "_value",
          "type": "uint256"
        },
        {
          "internalType": "bytes",
          "name": "_data",
          "type": "bytes"
        }
      ],
      "name": "call",
      "outputs": [],
      "stateMutability": "nonpayable",
      "type": "function"
    },
    {
      "inputs": [
        {
          "internalType": "address",
          "name": "firstPairAddress",
          "type": "address"
        },
        {
          "internalType": "address",
          "name": "secondPairAddress",
          "type": "address"
        },
        {
          "internalType": "uint256",
          "name": "percentageToPayToCoinbase",
          "type": "uint256"
        }
      ],
      "name": "executeArbitrage",
      "outputs": [],
      "stateMutability": "nonpayable",
      "type": "function"
    },
    {
      "inputs": [],
      "name": "owner",
      "outputs": [
        {
          "internalType": "address",
          "name": "",
          "type": "address"
        }
      ],
      "stateMutability": "view",
      "type": "function"
    },
    {
      "inputs": [],
      "name": "renounceOwnership",
      "outputs": [],
      "stateMutability": "nonpayable",
      "type": "function"
    },
    {
      "inputs": [
        {
          "internalType": "address",
          "name": "newOwner",
          "type": "address"
        }
      ],
      "name": "transferOwnership",
      "outputs": [],
      "stateMutability": "nonpayable",
      "type": "function"
    },
    {
      "inputs": [],
      "name": "withdrawETHToOwner",
      "outputs": [],
      "stateMutability": "nonpayable",
      "type": "function"
    },
    {
      "inputs": [],
      "name": "withdrawWETHToOwner",
      "outputs": [],
      "stateMutability": "nonpayable",
      "type": "function"
    },
    {
      "stateMutability": "payable",
      "type": "receive"
    }
  ],
  "bytecode": {
    "object": "0x60a060405234801561001057600080fd5b5060405161177238038061177283398101604081905261002f91610099565b61003833610049565b6001600160a01b03166080526100c9565b600080546001600160a01b038381166001600160a01b0319831681178455604051919092169283917f8be0079c531659141344cd1fd0a4f28419497f9722a3daafe3b4186f6b6457e09190a35050565b6000602082840312156100ab57600080fd5b81516001600160a01b03811681146100c257600080fd5b9392505050565b60805161165e61011460003960008181609d015281816101ba0152818161036e0152818161094901528181610ab901528181610c7d01528181610d0f0152610f4e015261165e6000f3fe60806040526004361061007f5760003560e01c806377432b8c1161004e57806377432b8c146101325780638da5cb5b14610147578063ea3e506c14610165578063f2fde38b1461017a57600080fd5b8063040141e51461008b578063650f84be146100db5780636dbf2fa0146100fd578063715018a61461011d57600080fd5b3661008657005b600080fd5b34801561009757600080fd5b506100bf7f000000000000000000000000000000000000000000000000000000000000000081565b6040516001600160a01b03909116815260200160405180910390f35b3480156100e757600080fd5b506100fb6100f63660046112a4565b61019a565b005b34801561010957600080fd5b506100fb6101183660046112fb565b610b5b565b34801561012957600080fd5b506100fb610c0e565b34801561013e57600080fd5b506100fb610c22565b34801561015357600080fd5b506000546001600160a01b03166100bf565b34801561017157600080fd5b506100fb610c5d565b34801561018657600080fd5b506100fb6101953660046113c8565b610d84565b6101a2610dfd565b6040516370a0823160e01b81523060048201526000907f00000000000000000000000000000000000000000000000000000000000000006001600160a01b0316906370a0823190602401602060405180830381865afa158015610209573d6000803e3d6000fd5b505050506040513d601f19601f8201168201806040525081019061022d91906113e5565b9050610267604051806040016040528060168152602001755374617274696e672062616c616e636520203a20257360501b81525082610e57565b8383600061027483610e9c565b9050600061028183610e9c565b90506102c16040518060400160405280601b81526020017f0a2d2d2d2d2d2d2d2d2d20505249434553202d2d2d2d2d2d2d2d2d0000000000815250611046565b6102fd604051806040016040528060168152602001756669727374506169722070726963652020203a20257360501b8152508360400151610e57565b610339604051806040016040528060168152602001757365636f6e645061697220707269636520203a20257360501b8152508260400151610e57565b60006103458383611089565b60405163a9059cbb60e01b81526001600160a01b038b81166004830152602482018390529192507f00000000000000000000000000000000000000000000000000000000000000009091169063a9059cbb906044016020604051808303816000875af11580156103b9573d6000803e3d6000fd5b505050506040513d601f19601f820116820180604052508101906103dd91906113fe565b5060008084606001511515600115150361069657610404838660000151876020015161114d565b9150610419828560200151866000015161114d565b905061043c60405180606001604052806022815260200161160760229139611046565b61047460405180604001604052806016815260200175616d6f756e74496e202020202020202020203a20257360501b81525084610e57565b6104ac60405180604001604052806016815260200175666972737450616972416d6f756e744f75743a20257360501b81525083610e57565b6104e46040518060400160405280601681526020017566696e616c416d6f756e744f7574202020203a20257360501b81525082610e57565b6040805180820190915260168152756172622070726f66697420202020202020203a20257360501b60208201526105249061051f838661119b565b610e57565b6105626040518060400160405280601c81526020017f0a2d2d2d2d2d2d2d2d2d2054524144494e47202d2d2d2d2d2d2d2d2d00000000815250611046565b60405163022c0d9f60e01b81526001600160a01b0388169063022c0d9f906105939060009086908f90600401611420565b600060405180830381600087803b1580156105ad57600080fd5b505af11580156105c1573d6000803e3d6000fd5b505050506105f960405180604001604052806013815260200172666972737450616972207377617020646f6e6560681b815250611046565b60405163022c0d9f60e01b81526001600160a01b0387169063022c0d9f9061062a9084906000903090600401611420565b600060405180830381600087803b15801561064457600080fd5b505af1158015610658573d6000803e3d6000fd5b50505050610691604051806040016040528060148152602001737365636f6e6450616972207377617020646f6e6560601b815250611046565b610931565b6106a9838660200151876000015161114d565b91506106be828560000151866020015161114d565b90506106e160405180606001604052806022815260200161160760229139611046565b61071960405180604001604052806016815260200175616d6f756e74496e202020202020202020203a20257360501b81525084610e57565b61075160405180604001604052806016815260200175666972737450616972416d6f756e744f75743a20257360501b81525083610e57565b6107896040518060400160405280601681526020017566696e616c416d6f756e744f7574202020203a20257360501b81525082610e57565b6040805180820190915260168152756172622070726f66697420202020202020203a20257360501b60208201526107c49061051f838661119b565b6108026040518060400160405280601c81526020017f0a2d2d2d2d2d2d2d2d2d2054524144494e47202d2d2d2d2d2d2d2d2d00000000815250611046565b60405163022c0d9f60e01b81526001600160a01b0388169063022c0d9f906108339085906000908f90600401611420565b600060405180830381600087803b15801561084d57600080fd5b505af1158015610861573d6000803e3d6000fd5b5050505061089960405180604001604052806013815260200172666972737450616972207377617020646f6e6560681b815250611046565b60405163022c0d9f60e01b81526001600160a01b0387169063022c0d9f906108ca9060009085903090600401611420565b600060405180830381600087803b1580156108e457600080fd5b505af11580156108f8573d6000803e3d6000fd5b50505050610931604051806040016040528060148152602001737365636f6e6450616972207377617020646f6e6560601b815250611046565b6040516370a0823160e01b81523060048201526000907f00000000000000000000000000000000000000000000000000000000000000006001600160a01b0316906370a0823190602401602060405180830381865afa158015610998573d6000803e3d6000fd5b505050506040513d601f19601f820116820180604052508101906109bc91906113e5565b9050888111610a055760405162461bcd60e51b815260206004820152601060248201526f105c989a5d1c9859d94819985a5b195960821b60448201526064015b60405180910390fd5b610a436040518060400160405280601c81526020017f0a2d2d2d2d2d2d2d2d2d2053554343455353202d2d2d2d2d2d2d2d2d00000000815250611046565b610a7b60405180604001604052806016815260200175456e64696e672062616c616e6365202020203a20257360501b81525082610e57565b6000610a87828b61119b565b90506000610aa06064610a9a848f6111ae565b906111ba565b604051632e1a7d4d60e01b8152600481018290529091507f00000000000000000000000000000000000000000000000000000000000000006001600160a01b031690632e1a7d4d90602401600060405180830381600087803b158015610b0557600080fd5b505af1158015610b19573d6000803e3d6000fd5b505060405141925083156108fc02915083906000818181858888f19350505050158015610b4a573d6000803e3d6000fd5b505050505050505050505050505050565b610b63610dfd565b6000836001600160a01b03168383604051610b7e919061147a565b60006040518083038185875af1925050503d8060008114610bbb576040519150601f19603f3d011682016040523d82523d6000602084013e610bc0565b606091505b5050905080610c085760405162461bcd60e51b8152602060048201526014602482015273115e1d195c9b985b0818d85b1b0819985a5b195960621b60448201526064016109fc565b50505050565b610c16610dfd565b610c2060006111c6565b565b610c2a610dfd565b6040514790339082156108fc029083906000818181858888f19350505050158015610c59573d6000803e3d6000fd5b5050565b610c65610dfd565b6040516370a0823160e01b81523060048201526000907f00000000000000000000000000000000000000000000000000000000000000006001600160a01b0316906370a0823190602401602060405180830381865afa158015610ccc573d6000803e3d6000fd5b505050506040513d601f19601f82011682018060405250810190610cf091906113e5565b60405163a9059cbb60e01b8152336004820152602481018290529091507f00000000000000000000000000000000000000000000000000000000000000006001600160a01b03169063a9059cbb906044016020604051808303816000875af1158015610d60573d6000803e3d6000fd5b505050506040513d601f19601f82011682018060405250810190610c5991906113fe565b610d8c610dfd565b6001600160a01b038116610df15760405162461bcd60e51b815260206004820152602660248201527f4f776e61626c653a206e6577206f776e657220697320746865207a65726f206160448201526564647265737360d01b60648201526084016109fc565b610dfa816111c6565b50565b6000546001600160a01b03163314610c205760405162461bcd60e51b815260206004820181905260248201527f4f776e61626c653a2063616c6c6572206973206e6f7420746865206f776e657260448201526064016109fc565b610c598282604051602401610e6d9291906114c2565b60408051601f198184030181529190526020810180516001600160e01b03166309710a9d60e41b179052611216565b610ec960405180608001604052806000815260200160008152602001600081526020016000151581525090565b600080836001600160a01b0316630902f1ac6040518163ffffffff1660e01b8152600401606060405180830381865afa158015610f0a573d6000803e3d6000fd5b505050506040513d601f19601f82011682018060405250810190610f2e9190611500565b506001600160701b031691506001600160701b03169150600080600090507f00000000000000000000000000000000000000000000000000000000000000006001600160a01b0316866001600160a01b0316630dfe16816040518163ffffffff1660e01b8152600401602060405180830381865afa158015610fb4573d6000803e3d6000fd5b505050506040513d601f19601f82011682018060405250810190610fd89190611550565b6001600160a01b03160361100757610ffc84610a9a85670de0b6b3a76400006111ae565b915060019050611020565b61101d83610a9a86670de0b6b3a76400006111ae565b91505b604080516080810182529485526020850193909352918301521515606082015292915050565b610dfa8160405160240161105a919061156d565b60408051601f198184030181529190526020810180516001600160e01b031663104c13eb60e21b179052611216565b6000806103e5905060006110d6670de0b6b3a76400006110d06110cb87604001516110c58a604001516110c5898a6111ae90919063ffffffff16565b906111ae565b611237565b9061119b565b905060006110fd8660200151610a9a670de0b6b3a7640000866111ae90919063ffffffff16565b905060006111248660200151610a9a89604001516110c588896111ae90919063ffffffff16565b905060006111328383611283565b9050600061114085836111ba565b9998505050505050505050565b60008061115c856103e56111ae565b9050600061116a82856111ae565b905060006111848361117e886103e86111ae565b90611283565b90506111908183611596565b979650505050505050565b60006111a782846115b8565b9392505050565b60006111a782846115cf565b60006111a78284611596565b600080546001600160a01b038381166001600160a01b0319831681178455604051919092169283917f8be0079c531659141344cd1fd0a4f28419497f9722a3daafe3b4186f6b6457e09190a35050565b80516a636f6e736f6c652e6c6f67602083016000808483855afa5050505050565b60008160000361124957506000919050565b600061125b6002610a9a856001611283565b9050825b808210156111a757508061127c6002610a9a8361117e88826111ba565b915061125f565b60006111a782846115ee565b6001600160a01b0381168114610dfa57600080fd5b6000806000606084860312156112b957600080fd5b83356112c48161128f565b925060208401356112d48161128f565b929592945050506040919091013590565b634e487b7160e01b600052604160045260246000fd5b60008060006060848603121561131057600080fd5b833561131b8161128f565b925060208401359150604084013567ffffffffffffffff8082111561133f57600080fd5b818601915086601f83011261135357600080fd5b813581811115611365576113656112e5565b604051601f8201601f19908116603f0116810190838211818310171561138d5761138d6112e5565b816040528281528960208487010111156113a657600080fd5b8260208601602083013760006020848301015280955050505050509250925092565b6000602082840312156113da57600080fd5b81356111a78161128f565b6000602082840312156113f757600080fd5b5051919050565b60006020828403121561141057600080fd5b815180151581146111a757600080fd5b92835260208301919091526001600160a01b0316604082015260806060820181905260009082015260a00190565b60005b83811015611469578181015183820152602001611451565b83811115610c085750506000910152565b6000825161148c81846020870161144e565b9190910192915050565b600081518084526114ae81602086016020860161144e565b601f01601f19169290920160200192915050565b6040815260006114d56040830185611496565b90508260208301529392505050565b80516001600160701b03811681146114fb57600080fd5b919050565b60008060006060848603121561151557600080fd5b61151e846114e4565b925061152c602085016114e4565b9150604084015163ffffffff8116811461154557600080fd5b809150509250925092565b60006020828403121561156257600080fd5b81516111a78161128f565b6020815260006111a76020830184611496565b634e487b7160e01b600052601160045260246000fd5b6000826115b357634e487b7160e01b600052601260045260246000fd5b500490565b6000828210156115ca576115ca611580565b500390565b60008160001904831182151516156115e9576115e9611580565b500290565b6000821982111561160157611601611580565b50019056fe0a2d2d2d2d2d2d2d2d2d20545241444520414d4f554e5453202d2d2d2d2d2d2d2d2da264697066735822122090f81f0b54f5657f85740888d80aa9931c0bd8ca81e2af3301d5d11c3a4123e064736f6c634300080f0033",
    "linkReferences": {}
  },
  "methodIdentifiers": {
    "WETH_ADDRESS()": "040141e5",
    "call(address,uint256,bytes)": "6dbf2fa0",
    "executeArbitrage(address,address,uint256)": "650f84be",
    "owner()": "8da5cb5b",
    "renounceOwnership()": "715018a6",
    "transferOwnership(address)": "f2fde38b",
    "withdrawETHToOwner()": "77432b8c",
    "withdrawWETHToOwner()": "ea3e506c"
  },
  "id": 24
}