{
  "abi": [
    {
      "inputs": [
        {
          "internalType": "address",
          "name": "_wethAddress",
          "type": "address"
        }
      ],
      "stateMutability": "nonpayable",
      "type": "constructor"
    },
    {
      "anonymous": false,
      "inputs": [
        {
          "indexed": true,
          "internalType": "address",
          "name": "previousOwner",
          "type": "address"
        },
        {
          "indexed": true,
          "internalType": "address",
          "name": "newOwner",
          "type": "address"
        }
      ],
      "name": "OwnershipTransferred",
      "type": "event"
    },
    {
      "inputs": [],
      "name": "WETH_ADDRESS",
      "outputs": [
        {
          "internalType": "address",
          "name": "",
          "type": "address"
        }
      ],
      "stateMutability": "view",
      "type": "function"
    },
    {
      "inputs": [
        {
          "internalType": "address payable",
          "name": "_to",
          "type": "address"
        },
        {
          "internalType": "uint256",
          "name": "_value",
          "type": "uint256"
        },
        {
          "internalType": "bytes",
          "name": "_data",
          "type": "bytes"
        }
      ],
      "name": "call",
      "outputs": [],
      "stateMutability": "nonpayable",
      "type": "function"
    },
    {
      "inputs": [
        {
          "internalType": "address",
          "name": "firstPairAddress",
          "type": "address"
        },
        {
          "internalType": "address",
          "name": "secondPairAddress",
          "type": "address"
        },
        {
          "internalType": "uint256",
          "name": "percentageToPayToCoinbase",
          "type": "uint256"
        }
      ],
      "name": "executeArbitrage",
      "outputs": [],
      "stateMutability": "nonpayable",
      "type": "function"
    },
    {
      "inputs": [
        {
          "components": [
            {
              "internalType": "uint256",
              "name": "reserve0",
              "type": "uint256"
            },
            {
              "internalType": "uint256",
              "name": "reserve1",
              "type": "uint256"
            },
            {
              "internalType": "uint256",
              "name": "price",
              "type": "uint256"
            },
            {
              "internalType": "bool",
              "name": "isWETHZero",
              "type": "bool"
            }
          ],
          "internalType": "struct IPairReserves.PairReserves",
          "name": "firstPairData",
          "type": "tuple"
        },
        {
          "components": [
            {
              "internalType": "uint256",
              "name": "reserve0",
              "type": "uint256"
            },
            {
              "internalType": "uint256",
              "name": "reserve1",
              "type": "uint256"
            },
            {
              "internalType": "uint256",
              "name": "price",
              "type": "uint256"
            },
            {
              "internalType": "bool",
              "name": "isWETHZero",
              "type": "bool"
            }
          ],
          "internalType": "struct IPairReserves.PairReserves",
          "name": "secondPairData",
          "type": "tuple"
        }
      ],
      "name": "getAmountIn",
      "outputs": [
        {
          "internalType": "uint256",
          "name": "",
          "type": "uint256"
        }
      ],
      "stateMutability": "view",
      "type": "function"
    },
    {
      "inputs": [
        {
          "components": [
            {
              "internalType": "uint256",
              "name": "reserve0",
              "type": "uint256"
            },
            {
              "internalType": "uint256",
              "name": "reserve1",
              "type": "uint256"
            },
            {
              "internalType": "uint256",
              "name": "price",
              "type": "uint256"
            },
            {
              "internalType": "bool",
              "name": "isWETHZero",
              "type": "bool"
            }
          ],
          "internalType": "struct IPairReserves.PairReserves",
          "name": "firstPairData",
          "type": "tuple"
        },
        {
          "components": [
            {
              "internalType": "uint256",
              "name": "reserve0",
              "type": "uint256"
            },
            {
              "internalType": "uint256",
              "name": "reserve1",
              "type": "uint256"
            },
            {
              "internalType": "uint256",
              "name": "price",
              "type": "uint256"
            },
            {
              "internalType": "bool",
              "name": "isWETHZero",
              "type": "bool"
            }
          ],
          "internalType": "struct IPairReserves.PairReserves",
          "name": "secondPairData",
          "type": "tuple"
        }
      ],
      "name": "getDenominator",
      "outputs": [
        {
          "internalType": "uint256",
          "name": "",
          "type": "uint256"
        }
      ],
      "stateMutability": "view",
      "type": "function"
    },
    {
      "inputs": [
        {
          "components": [
            {
              "internalType": "uint256",
              "name": "reserve0",
              "type": "uint256"
            },
            {
              "internalType": "uint256",
              "name": "reserve1",
              "type": "uint256"
            },
            {
              "internalType": "uint256",
              "name": "price",
              "type": "uint256"
            },
            {
              "internalType": "bool",
              "name": "isWETHZero",
              "type": "bool"
            }
          ],
          "internalType": "struct IPairReserves.PairReserves",
          "name": "firstPairData",
          "type": "tuple"
        },
        {
          "components": [
            {
              "internalType": "uint256",
              "name": "reserve0",
              "type": "uint256"
            },
            {
              "internalType": "uint256",
              "name": "reserve1",
              "type": "uint256"
            },
            {
              "internalType": "uint256",
              "name": "price",
              "type": "uint256"
            },
            {
              "internalType": "bool",
              "name": "isWETHZero",
              "type": "bool"
            }
          ],
          "internalType": "struct IPairReserves.PairReserves",
          "name": "secondPairData",
          "type": "tuple"
        }
      ],
      "name": "getNumerator",
      "outputs": [
        {
          "internalType": "uint256",
          "name": "",
          "type": "uint256"
        }
      ],
      "stateMutability": "view",
      "type": "function"
    },
    {
      "inputs": [],
      "name": "owner",
      "outputs": [
        {
          "internalType": "address",
          "name": "",
          "type": "address"
        }
      ],
      "stateMutability": "view",
      "type": "function"
    },
    {
      "inputs": [],
      "name": "renounceOwnership",
      "outputs": [],
      "stateMutability": "nonpayable",
      "type": "function"
    },
    {
      "inputs": [
        {
          "internalType": "address",
          "name": "newOwner",
          "type": "address"
        }
      ],
      "name": "transferOwnership",
      "outputs": [],
      "stateMutability": "nonpayable",
      "type": "function"
    },
    {
      "inputs": [],
      "name": "withdrawETHToOwner",
      "outputs": [],
      "stateMutability": "nonpayable",
      "type": "function"
    },
    {
      "inputs": [],
      "name": "withdrawWETHToOwner",
      "outputs": [],
      "stateMutability": "nonpayable",
      "type": "function"
    },
    {
      "stateMutability": "payable",
      "type": "receive"
    }
  ],
  "bytecode": {
    "object": "0x60a06040526103e560015534801561001657600080fd5b5060405162001bd138038062001bd1833981016040819052610037916100a1565b61004033610051565b6001600160a01b03166080526100d1565b600080546001600160a01b038381166001600160a01b0319831681178455604051919092169283917f8be0079c531659141344cd1fd0a4f28419497f9722a3daafe3b4186f6b6457e09190a35050565b6000602082840312156100b357600080fd5b81516001600160a01b03811681146100ca57600080fd5b9392505050565b608051611ab46200011d6000396000818160f0015281816104280152818161067301528181610bee01528181610d9001528181610f5401528181610fe601526113a70152611ab46000f3fe60806040526004361061009f5760003560e01c8063715018a611610064578063715018a61461018c57806377432b8c146101a15780638da5cb5b146101b6578063ea3e506c146101d4578063eb6b2116146101e9578063f2fde38b1461020957600080fd5b8062bb7d67146100ab578063040141e5146100de5780631fa7d39b1461012a578063650f84be1461014a5780636dbf2fa01461016c57600080fd5b366100a657005b600080fd5b3480156100b757600080fd5b506100cb6100c63660046116bc565b610229565b6040519081526020015b60405180910390f35b3480156100ea57600080fd5b506101127f000000000000000000000000000000000000000000000000000000000000000081565b6040516001600160a01b0390911681526020016100d5565b34801561013657600080fd5b506100cb6101453660046116bc565b61037c565b34801561015657600080fd5b5061016a610165366004611707565b610410565b005b34801561017857600080fd5b5061016a610187366004611748565b610e32565b34801561019857600080fd5b5061016a610ee5565b3480156101ad57600080fd5b5061016a610ef9565b3480156101c257600080fd5b506000546001600160a01b0316610112565b3480156101e057600080fd5b5061016a610f34565b3480156101f557600080fd5b506100cb6102043660046116bc565b61105b565b34801561021557600080fd5b5061016a6102243660046117f9565b6110f4565b6060820151600090151560010361031a57600061027f8460000151610279856020015161027987600001516102738a6020015161027360015460015461116d90919063ffffffff16565b9061116d565b90611180565b90506102ae6040518060400160405280600b81526020016a707265737172743a20257360a81b8152508261118c565b6102e960405180604001604052806011815260200170737172742870726573717274293a20257360781b8152506102e4836111d1565b61118c565b6000610310856000015161027386602001516102736103e861030a886111d1565b9061121d565b9250610376915050565b60006103538460200151610279856000015161027987602001516102738a6000015161027360015460015461116d90919063ffffffff16565b90506000610310856020015161027386600001516102736103e861030a886111d1565b92915050565b606082015160009015156001036103df5760006103d66103b1856020015161027360015460015461116d90919063ffffffff16565b6103d06103e8610273876020015160015461116d90919063ffffffff16565b90611229565b91506103769050565b82516001546000916103d6916103fa9190610273908061116d565b84516001546103d0916103e8916102739161116d565b6040516370a0823160e01b81523060048201526000907f00000000000000000000000000000000000000000000000000000000000000006001600160a01b0316906370a0823190602401602060405180830381865afa158015610477573d6000803e3d6000fd5b505050506040513d601f19601f8201168201806040525081019061049b9190611816565b90506104d5604051806040016040528060168152602001755374617274696e672062616c616e636520203a20257360501b8152508261118c565b60408051808201909152601e81527f0a2d2d2d2d2d2d2d2d2d20504149522044415441202d2d2d2d2d2d2d2d2d000060208201528490849061051690611235565b600061052183611278565b9050600061052e83611278565b905061056e6040518060400160405280601b81526020017f0a2d2d2d2d2d2d2d2d2d20505249434553202d2d2d2d2d2d2d2d2d0000000000815250611235565b6105aa604051806040016040528060168152602001756669727374506169722070726963652020203a20257360501b815250836040015161118c565b6105e6604051806040016040528060168152602001757365636f6e645061697220707269636520203a20257360501b815250826040015161118c565b60006105f2838361105b565b9050610615604051806060016040528060228152602001611a5d60229139611235565b61064d60405180604001604052806016815260200175616d6f756e74496e202020202020202020203a20257360501b8152508261118c565b60405163a9059cbb60e01b81526001600160a01b038a81166004830152602482018390527f0000000000000000000000000000000000000000000000000000000000000000169063a9059cbb906044016020604051808303816000875af11580156106bc573d6000803e3d6000fd5b505050506040513d601f19601f820116820180604052508101906106e0919061182f565b5060008084606001511515600115150361093b57610707838660000151876020015161149f565b915061071c828560200151866000015161149f565b905061075660405180604001604052806016815260200175666972737450616972416d6f756e744f75743a20257360501b8152508361118c565b61078e6040518060400160405280601681526020017566696e616c416d6f756e744f7574202020203a20257360501b8152508261118c565b6040805180820190915260168152756172622070726f66697420202020202020203a20257360501b60208201526107c9906102e4838661121d565b6108076040518060400160405280601c81526020017f0a2d2d2d2d2d2d2d2d2d2054524144494e47202d2d2d2d2d2d2d2d2d00000000815250611235565b60405163022c0d9f60e01b81526001600160a01b0388169063022c0d9f906108389060009086908f9060040161184c565b600060405180830381600087803b15801561085257600080fd5b505af1158015610866573d6000803e3d6000fd5b5050505061089e60405180604001604052806013815260200172666972737450616972207377617020646f6e6560681b815250611235565b60405163022c0d9f60e01b81526001600160a01b0387169063022c0d9f906108cf908490600090309060040161184c565b600060405180830381600087803b1580156108e957600080fd5b505af11580156108fd573d6000803e3d6000fd5b50505050610936604051806040016040528060148152602001737365636f6e6450616972207377617020646f6e6560601b815250611235565b610bd6565b61094e838660200151876000015161149f565b9150610963828560000151866020015161149f565b9050610986604051806060016040528060228152602001611a5d60229139611235565b6109be60405180604001604052806016815260200175616d6f756e74496e202020202020202020203a20257360501b8152508461118c565b6109f660405180604001604052806016815260200175666972737450616972416d6f756e744f75743a20257360501b8152508361118c565b610a2e6040518060400160405280601681526020017566696e616c416d6f756e744f7574202020203a20257360501b8152508261118c565b6040805180820190915260168152756172622070726f66697420202020202020203a20257360501b6020820152610a69906102e4838661121d565b610aa76040518060400160405280601c81526020017f0a2d2d2d2d2d2d2d2d2d2054524144494e47202d2d2d2d2d2d2d2d2d00000000815250611235565b60405163022c0d9f60e01b81526001600160a01b0388169063022c0d9f90610ad89085906000908f9060040161184c565b600060405180830381600087803b158015610af257600080fd5b505af1158015610b06573d6000803e3d6000fd5b50505050610b3e60405180604001604052806013815260200172666972737450616972207377617020646f6e6560681b815250611235565b60405163022c0d9f60e01b81526001600160a01b0387169063022c0d9f90610b6f906000908590309060040161184c565b600060405180830381600087803b158015610b8957600080fd5b505af1158015610b9d573d6000803e3d6000fd5b50505050610bd6604051806040016040528060148152602001737365636f6e6450616972207377617020646f6e6560601b815250611235565b6040516370a0823160e01b81523060048201526000907f00000000000000000000000000000000000000000000000000000000000000006001600160a01b0316906370a0823190602401602060405180830381865afa158015610c3d573d6000803e3d6000fd5b505050506040513d601f19601f82011682018060405250810190610c619190611816565b9050888111610caa5760405162461bcd60e51b815260206004820152601060248201526f105c989a5d1c9859d94819985a5b195960821b60448201526064015b60405180910390fd5b610ce86040518060400160405280601c81526020017f0a2d2d2d2d2d2d2d2d2d2053554343455353202d2d2d2d2d2d2d2d2d00000000815250611235565b610d2060405180604001604052806016815260200175456e64696e672062616c616e6365202020203a20257360501b8152508261118c565b6000610d2c828b61121d565b9050610d666040518060400160405280601681526020017550726f6669742020202020202020202020203a20257360501b8152508261118c565b6000610d776064610279848f61116d565b604051632e1a7d4d60e01b8152600481018290529091507f00000000000000000000000000000000000000000000000000000000000000006001600160a01b031690632e1a7d4d90602401600060405180830381600087803b158015610ddc57600080fd5b505af1158015610df0573d6000803e3d6000fd5b505060405141925083156108fc02915083906000818181858888f19350505050158015610e21573d6000803e3d6000fd5b505050505050505050505050505050565b610e3a6114e7565b6000836001600160a01b03168383604051610e5591906118a6565b60006040518083038185875af1925050503d8060008114610e92576040519150601f19603f3d011682016040523d82523d6000602084013e610e97565b606091505b5050905080610edf5760405162461bcd60e51b8152602060048201526014602482015273115e1d195c9b985b0818d85b1b0819985a5b195960621b6044820152606401610ca1565b50505050565b610eed6114e7565b610ef76000611541565b565b610f016114e7565b6040514790339082156108fc029083906000818181858888f19350505050158015610f30573d6000803e3d6000fd5b5050565b610f3c6114e7565b6040516370a0823160e01b81523060048201526000907f00000000000000000000000000000000000000000000000000000000000000006001600160a01b0316906370a0823190602401602060405180830381865afa158015610fa3573d6000803e3d6000fd5b505050506040513d601f19601f82011682018060405250810190610fc79190611816565b60405163a9059cbb60e01b8152336004820152602481018290529091507f00000000000000000000000000000000000000000000000000000000000000006001600160a01b03169063a9059cbb906044016020604051808303816000875af1158015611037573d6000803e3d6000fd5b505050506040513d601f19601f82011682018060405250810190610f30919061182f565b6000806110688484610229565b90506110996040518060400160405280600d81526020016c6e756d657261746f723a20257360981b8152508261118c565b60006110a5858561037c565b90506110d86040518060400160405280600f81526020016e64656e6f6d696e61746f723a20257360881b8152508261118c565b60006110ea82610279856103e861116d565b9695505050505050565b6110fc6114e7565b6001600160a01b0381166111615760405162461bcd60e51b815260206004820152602660248201527f4f776e61626c653a206e6577206f776e657220697320746865207a65726f206160448201526564647265737360d01b6064820152608401610ca1565b61116a81611541565b50565b600061117982846118d8565b9392505050565b600061117982846118f7565b610f3082826040516024016111a2929190611945565b60408051601f198184030181529190526020810180516001600160e01b03166309710a9d60e41b179052611591565b6000816000036111e357506000919050565b60006111f56002610279856001611229565b9050825b808210156111795750806112166002610279836103d08882611180565b91506111f9565b60006111798284611967565b6000611179828461197e565b61116a816040516024016112499190611996565b60408051601f198184030181529190526020810180516001600160e01b031663104c13eb60e21b179052611591565b6112a560405180608001604052806000815260200160008152602001600081526020016000151581525090565b600080836001600160a01b0316630902f1ac6040518163ffffffff1660e01b8152600401606060405180830381865afa1580156112e6573d6000803e3d6000fd5b505050506040513d601f19601f8201168201806040525081019061130a91906119c5565b506001600160701b031691506001600160701b03169150611348604051806040016040528060058152602001643830b4b91d60d91b815250856115b2565b611373604051806040016040528060098152602001683932b9b2b93b32981d60b91b8152508361118c565b61139e604051806040016040528060098152602001683932b9b2b93b32989d60b91b8152508261118c565b600080600090507f00000000000000000000000000000000000000000000000000000000000000006001600160a01b0316866001600160a01b0316630dfe16816040518163ffffffff1660e01b8152600401602060405180830381865afa15801561140d573d6000803e3d6000fd5b505050506040513d601f19601f820116820180604052508101906114319190611a15565b6001600160a01b031603611460576114558461027985670de0b6b3a764000061116d565b915060019050611479565b6114768361027986670de0b6b3a764000061116d565b91505b604080516080810182529485526020850193909352918301521515606082015292915050565b6000806114ae856103e561116d565b905060006114bc828561116d565b905060006114d0836103d0886103e861116d565b90506114dc81836118f7565b979650505050505050565b6000546001600160a01b03163314610ef75760405162461bcd60e51b815260206004820181905260248201527f4f776e61626c653a2063616c6c6572206973206e6f7420746865206f776e65726044820152606401610ca1565b600080546001600160a01b038381166001600160a01b0319831681178455604051919092169283917f8be0079c531659141344cd1fd0a4f28419497f9722a3daafe3b4186f6b6457e09190a35050565b80516a636f6e736f6c652e6c6f67602083016000808483855afa5050505050565b610f3082826040516024016115c8929190611a32565b60408051601f198184030181529190526020810180516001600160e01b031663319af33360e01b179052611591565b634e487b7160e01b600052604160045260246000fd5b604051601f8201601f1916810167ffffffffffffffff81118282101715611636576116366115f7565b604052919050565b801515811461116a57600080fd5b60006080828403121561165e57600080fd5b6040516080810181811067ffffffffffffffff82111715611681576116816115f7565b806040525080915082358152602083013560208201526040830135604082015260608301356116af8161163e565b6060919091015292915050565b60008061010083850312156116d057600080fd5b6116da848461164c565b91506116e9846080850161164c565b90509250929050565b6001600160a01b038116811461116a57600080fd5b60008060006060848603121561171c57600080fd5b8335611727816116f2565b92506020840135611737816116f2565b929592945050506040919091013590565b60008060006060848603121561175d57600080fd5b8335611768816116f2565b92506020848101359250604085013567ffffffffffffffff8082111561178d57600080fd5b818701915087601f8301126117a157600080fd5b8135818111156117b3576117b36115f7565b6117c5601f8201601f1916850161160d565b915080825288848285010111156117db57600080fd5b80848401858401376000848284010152508093505050509250925092565b60006020828403121561180b57600080fd5b8135611179816116f2565b60006020828403121561182857600080fd5b5051919050565b60006020828403121561184157600080fd5b81516111798161163e565b92835260208301919091526001600160a01b0316604082015260806060820181905260009082015260a00190565b60005b8381101561189557818101518382015260200161187d565b83811115610edf5750506000910152565b600082516118b881846020870161187a565b9190910192915050565b634e487b7160e01b600052601160045260246000fd5b60008160001904831182151516156118f2576118f26118c2565b500290565b60008261191457634e487b7160e01b600052601260045260246000fd5b500490565b6000815180845261193181602086016020860161187a565b601f01601f19169290920160200192915050565b6040815260006119586040830185611919565b90508260208301529392505050565b600082821015611979576119796118c2565b500390565b60008219821115611991576119916118c2565b500190565b6020815260006111796020830184611919565b80516001600160701b03811681146119c057600080fd5b919050565b6000806000606084860312156119da57600080fd5b6119e3846119a9565b92506119f1602085016119a9565b9150604084015163ffffffff81168114611a0a57600080fd5b809150509250925092565b600060208284031215611a2757600080fd5b8151611179816116f2565b604081526000611a456040830185611919565b905060018060a01b0383166020830152939250505056fe0a2d2d2d2d2d2d2d2d2d20545241444520414d4f554e5453202d2d2d2d2d2d2d2d2da2646970667358221220a0c2eda3dfafcf0a714161219cd52a7955ba62fb1022d94c9b1fce8f29b8540a64736f6c634300080f0033",
    "linkReferences": {}
  },
  "methodIdentifiers": {
    "WETH_ADDRESS()": "040141e5",
    "call(address,uint256,bytes)": "6dbf2fa0",
    "executeArbitrage(address,address,uint256)": "650f84be",
    "getAmountIn((uint256,uint256,uint256,bool),(uint256,uint256,uint256,bool))": "eb6b2116",
    "getDenominator((uint256,uint256,uint256,bool),(uint256,uint256,uint256,bool))": "1fa7d39b",
    "getNumerator((uint256,uint256,uint256,bool),(uint256,uint256,uint256,bool))": "00bb7d67",
    "owner()": "8da5cb5b",
    "renounceOwnership()": "715018a6",
    "transferOwnership(address)": "f2fde38b",
    "withdrawETHToOwner()": "77432b8c",
    "withdrawWETHToOwner()": "ea3e506c"
  },
  "id": 26
}