{
  "abi": [
    {
      "inputs": [
        {
          "internalType": "address",
          "name": "_wethAddress",
          "type": "address"
        }
      ],
      "stateMutability": "nonpayable",
      "type": "constructor"
    },
    {
      "anonymous": false,
      "inputs": [
        {
          "indexed": true,
          "internalType": "address",
          "name": "previousOwner",
          "type": "address"
        },
        {
          "indexed": true,
          "internalType": "address",
          "name": "newOwner",
          "type": "address"
        }
      ],
      "name": "OwnershipTransferred",
      "type": "event"
    },
    {
      "inputs": [],
      "name": "WETH_ADDRESS",
      "outputs": [
        {
          "internalType": "address",
          "name": "",
          "type": "address"
        }
      ],
      "stateMutability": "view",
      "type": "function"
    },
    {
      "inputs": [
        {
          "internalType": "address payable",
          "name": "_to",
          "type": "address"
        },
        {
          "internalType": "uint256",
          "name": "_value",
          "type": "uint256"
        },
        {
          "internalType": "bytes",
          "name": "_data",
          "type": "bytes"
        }
      ],
      "name": "call",
      "outputs": [],
      "stateMutability": "nonpayable",
      "type": "function"
    },
    {
      "inputs": [
        {
          "internalType": "address",
          "name": "firstPairAddress",
          "type": "address"
        },
        {
          "internalType": "address",
          "name": "secondPairAddress",
          "type": "address"
        },
        {
          "internalType": "uint256",
          "name": "percentageToPayToCoinbase",
          "type": "uint256"
        }
      ],
      "name": "executeArbitrage",
      "outputs": [],
      "stateMutability": "nonpayable",
      "type": "function"
    },
    {
      "inputs": [
        {
          "components": [
            {
              "internalType": "uint256",
              "name": "reserve0",
              "type": "uint256"
            },
            {
              "internalType": "uint256",
              "name": "reserve1",
              "type": "uint256"
            },
            {
              "internalType": "uint256",
              "name": "price",
              "type": "uint256"
            },
            {
              "internalType": "bool",
              "name": "isWETHZero",
              "type": "bool"
            }
          ],
          "internalType": "struct IPairReserves.PairReserves",
          "name": "firstPairData",
          "type": "tuple"
        },
        {
          "components": [
            {
              "internalType": "uint256",
              "name": "reserve0",
              "type": "uint256"
            },
            {
              "internalType": "uint256",
              "name": "reserve1",
              "type": "uint256"
            },
            {
              "internalType": "uint256",
              "name": "price",
              "type": "uint256"
            },
            {
              "internalType": "bool",
              "name": "isWETHZero",
              "type": "bool"
            }
          ],
          "internalType": "struct IPairReserves.PairReserves",
          "name": "secondPairData",
          "type": "tuple"
        }
      ],
      "name": "getAmountIn",
      "outputs": [
        {
          "internalType": "uint256",
          "name": "",
          "type": "uint256"
        }
      ],
      "stateMutability": "nonpayable",
      "type": "function"
    },
    {
      "inputs": [
        {
          "components": [
            {
              "internalType": "uint256",
              "name": "reserve0",
              "type": "uint256"
            },
            {
              "internalType": "uint256",
              "name": "reserve1",
              "type": "uint256"
            },
            {
              "internalType": "uint256",
              "name": "price",
              "type": "uint256"
            },
            {
              "internalType": "bool",
              "name": "isWETHZero",
              "type": "bool"
            }
          ],
          "internalType": "struct IPairReserves.PairReserves",
          "name": "firstPairData",
          "type": "tuple"
        },
        {
          "components": [
            {
              "internalType": "uint256",
              "name": "reserve0",
              "type": "uint256"
            },
            {
              "internalType": "uint256",
              "name": "reserve1",
              "type": "uint256"
            },
            {
              "internalType": "uint256",
              "name": "price",
              "type": "uint256"
            },
            {
              "internalType": "bool",
              "name": "isWETHZero",
              "type": "bool"
            }
          ],
          "internalType": "struct IPairReserves.PairReserves",
          "name": "secondPairData",
          "type": "tuple"
        }
      ],
      "name": "getDenominator",
      "outputs": [
        {
          "internalType": "uint256",
          "name": "",
          "type": "uint256"
        }
      ],
      "stateMutability": "nonpayable",
      "type": "function"
    },
    {
      "inputs": [
        {
          "internalType": "bool",
          "name": "first",
          "type": "bool"
        }
      ],
      "name": "getFakePairData",
      "outputs": [
        {
          "components": [
            {
              "internalType": "uint256",
              "name": "reserve0",
              "type": "uint256"
            },
            {
              "internalType": "uint256",
              "name": "reserve1",
              "type": "uint256"
            },
            {
              "internalType": "uint256",
              "name": "price",
              "type": "uint256"
            },
            {
              "internalType": "bool",
              "name": "isWETHZero",
              "type": "bool"
            }
          ],
          "internalType": "struct IPairReserves.PairReserves",
          "name": "",
          "type": "tuple"
        }
      ],
      "stateMutability": "view",
      "type": "function"
    },
    {
      "inputs": [
        {
          "internalType": "bool",
          "name": "first",
          "type": "bool"
        }
      ],
      "name": "getFlippedFakePairData",
      "outputs": [
        {
          "components": [
            {
              "internalType": "uint256",
              "name": "reserve0",
              "type": "uint256"
            },
            {
              "internalType": "uint256",
              "name": "reserve1",
              "type": "uint256"
            },
            {
              "internalType": "uint256",
              "name": "price",
              "type": "uint256"
            },
            {
              "internalType": "bool",
              "name": "isWETHZero",
              "type": "bool"
            }
          ],
          "internalType": "struct IPairReserves.PairReserves",
          "name": "",
          "type": "tuple"
        }
      ],
      "stateMutability": "view",
      "type": "function"
    },
    {
      "inputs": [
        {
          "components": [
            {
              "internalType": "uint256",
              "name": "reserve0",
              "type": "uint256"
            },
            {
              "internalType": "uint256",
              "name": "reserve1",
              "type": "uint256"
            },
            {
              "internalType": "uint256",
              "name": "price",
              "type": "uint256"
            },
            {
              "internalType": "bool",
              "name": "isWETHZero",
              "type": "bool"
            }
          ],
          "internalType": "struct IPairReserves.PairReserves",
          "name": "firstPairData",
          "type": "tuple"
        },
        {
          "components": [
            {
              "internalType": "uint256",
              "name": "reserve0",
              "type": "uint256"
            },
            {
              "internalType": "uint256",
              "name": "reserve1",
              "type": "uint256"
            },
            {
              "internalType": "uint256",
              "name": "price",
              "type": "uint256"
            },
            {
              "internalType": "bool",
              "name": "isWETHZero",
              "type": "bool"
            }
          ],
          "internalType": "struct IPairReserves.PairReserves",
          "name": "secondPairData",
          "type": "tuple"
        }
      ],
      "name": "getNumerator",
      "outputs": [
        {
          "internalType": "uint256",
          "name": "",
          "type": "uint256"
        }
      ],
      "stateMutability": "view",
      "type": "function"
    },
    {
      "inputs": [],
      "name": "owner",
      "outputs": [
        {
          "internalType": "address",
          "name": "",
          "type": "address"
        }
      ],
      "stateMutability": "view",
      "type": "function"
    },
    {
      "inputs": [],
      "name": "renounceOwnership",
      "outputs": [],
      "stateMutability": "nonpayable",
      "type": "function"
    },
    {
      "inputs": [
        {
          "internalType": "address",
          "name": "newOwner",
          "type": "address"
        }
      ],
      "name": "transferOwnership",
      "outputs": [],
      "stateMutability": "nonpayable",
      "type": "function"
    },
    {
      "inputs": [],
      "name": "withdrawETHToOwner",
      "outputs": [],
      "stateMutability": "nonpayable",
      "type": "function"
    },
    {
      "inputs": [],
      "name": "withdrawWETHToOwner",
      "outputs": [],
      "stateMutability": "nonpayable",
      "type": "function"
    },
    {
      "stateMutability": "payable",
      "type": "receive"
    }
  ],
  "bytecode": {
    "object": "0x60a06040526103e560015534801561001657600080fd5b5060405162001cc538038062001cc5833981016040819052610037916100a1565b61004033610051565b6001600160a01b03166080526100d1565b600080546001600160a01b038381166001600160a01b0319831681178455604051919092169283917f8be0079c531659141344cd1fd0a4f28419497f9722a3daafe3b4186f6b6457e09190a35050565b6000602082840312156100b357600080fd5b81516001600160a01b03811681146100ca57600080fd5b9392505050565b608051611ba76200011e6000396000818161011601528181610463015281816106ae01528181610c2e01528181610d980152818161108d0152818161111f01526114da0152611ba76000f3fe6080604052600436106100c55760003560e01c806377432b8c1161007f578063d22f8c9111610059578063d22f8c911461024f578063ea3e506c1461026f578063eb6b211614610284578063f2fde38b146102a457600080fd5b806377432b8c146101c75780638da5cb5b146101dc578063ba7f6540146101fa57600080fd5b8062bb7d67146100d1578063040141e5146101045780631fa7d39b14610150578063650f84be146101705780636dbf2fa014610192578063715018a6146101b257600080fd5b366100cc57005b600080fd5b3480156100dd57600080fd5b506100f16100ec366004611792565b6102c4565b6040519081526020015b60405180910390f35b34801561011057600080fd5b506101387f000000000000000000000000000000000000000000000000000000000000000081565b6040516001600160a01b0390911681526020016100fb565b34801561015c57600080fd5b506100f161016b366004611792565b6103af565b34801561017c57600080fd5b5061019061018b3660046117dd565b610443565b005b34801561019e57600080fd5b506101906101ad36600461181e565b610e3a565b3480156101be57600080fd5b50610190610eed565b3480156101d357600080fd5b50610190610f01565b3480156101e857600080fd5b506000546001600160a01b0316610138565b34801561020657600080fd5b5061021a6102153660046118cf565b610f3c565b6040516100fb919081518152602080830151908201526040808301519082015260609182015115159181019190915260800190565b34801561025b57600080fd5b5061021a61026a3660046118cf565b610fed565b34801561027b57600080fd5b5061019061106d565b34801561029057600080fd5b506100f161029f366004611792565b611194565b3480156102b057600080fd5b506101906102bf3660046118ec565b6111cd565b6060820151600090151560010361034d57600061031a84600001516103148560200151610314876000015161030e8a6020015161030e60015460015461124690919063ffffffff16565b90611246565b90611259565b90506000610343856000015161030e866020015161030e6103e861033d88611265565b906112b1565b92506103a9915050565b600061038684602001516103148560000151610314876020015161030e8a6000015161030e60015460015461124690919063ffffffff16565b90506000610343856020015161030e866000015161030e6103e861033d88611265565b92915050565b606082015160009015156001036104125760006104096103e4856020015161030e60015460015461124690919063ffffffff16565b6104036103e861030e876020015160015461124690919063ffffffff16565b906112bd565b91506103a99050565b82516001546000916104099161042d919061030e9080611246565b8451600154610403916103e89161030e91611246565b61044b6112c9565b6040516370a0823160e01b81523060048201526000907f00000000000000000000000000000000000000000000000000000000000000006001600160a01b0316906370a0823190602401602060405180830381865afa1580156104b2573d6000803e3d6000fd5b505050506040513d601f19601f820116820180604052508101906104d69190611909565b9050610510604051806040016040528060168152602001755374617274696e672062616c616e636520203a20257360501b81525082611323565b60408051808201909152601e81527f0a2d2d2d2d2d2d2d2d2d20504149522044415441202d2d2d2d2d2d2d2d2d000060208201528490849061055190611368565b600061055c836113ab565b90506000610569836113ab565b90506105a96040518060400160405280601b81526020017f0a2d2d2d2d2d2d2d2d2d20505249434553202d2d2d2d2d2d2d2d2d0000000000815250611368565b6105e5604051806040016040528060168152602001756669727374506169722070726963652020203a20257360501b8152508360400151611323565b610621604051806040016040528060168152602001757365636f6e645061697220707269636520203a20257360501b8152508260400151611323565b600061062d8383611194565b9050610650604051806060016040528060228152602001611b5060229139611368565b61068860405180604001604052806016815260200175616d6f756e74496e202020202020202020203a20257360501b81525082611323565b60405163a9059cbb60e01b81526001600160a01b038a81166004830152602482018390527f0000000000000000000000000000000000000000000000000000000000000000169063a9059cbb906044016020604051808303816000875af11580156106f7573d6000803e3d6000fd5b505050506040513d601f19601f8201168201806040525081019061071b9190611922565b5060008084606001511515600115150361097b5761074283866000015187602001516115cf565b915061075782856020015186600001516115cf565b905061079160405180604001604052806016815260200175666972737450616972416d6f756e744f75743a20257360501b81525083611323565b6107c96040518060400160405280601681526020017566696e616c416d6f756e744f7574202020203a20257360501b81525082611323565b6040805180820190915260168152756172622070726f66697420202020202020203a20257360501b60208201526108099061080483866112b1565b611323565b6108476040518060400160405280601c81526020017f0a2d2d2d2d2d2d2d2d2d2054524144494e47202d2d2d2d2d2d2d2d2d00000000815250611368565b60405163022c0d9f60e01b81526001600160a01b0388169063022c0d9f906108789060009086908f9060040161193f565b600060405180830381600087803b15801561089257600080fd5b505af11580156108a6573d6000803e3d6000fd5b505050506108de60405180604001604052806013815260200172666972737450616972207377617020646f6e6560681b815250611368565b60405163022c0d9f60e01b81526001600160a01b0387169063022c0d9f9061090f908490600090309060040161193f565b600060405180830381600087803b15801561092957600080fd5b505af115801561093d573d6000803e3d6000fd5b50505050610976604051806040016040528060148152602001737365636f6e6450616972207377617020646f6e6560601b815250611368565b610c16565b61098e83866020015187600001516115cf565b91506109a382856000015186602001516115cf565b90506109c6604051806060016040528060228152602001611b5060229139611368565b6109fe60405180604001604052806016815260200175616d6f756e74496e202020202020202020203a20257360501b81525084611323565b610a3660405180604001604052806016815260200175666972737450616972416d6f756e744f75743a20257360501b81525083611323565b610a6e6040518060400160405280601681526020017566696e616c416d6f756e744f7574202020203a20257360501b81525082611323565b6040805180820190915260168152756172622070726f66697420202020202020203a20257360501b6020820152610aa99061080483866112b1565b610ae76040518060400160405280601c81526020017f0a2d2d2d2d2d2d2d2d2d2054524144494e47202d2d2d2d2d2d2d2d2d00000000815250611368565b60405163022c0d9f60e01b81526001600160a01b0388169063022c0d9f90610b189085906000908f9060040161193f565b600060405180830381600087803b158015610b3257600080fd5b505af1158015610b46573d6000803e3d6000fd5b50505050610b7e60405180604001604052806013815260200172666972737450616972207377617020646f6e6560681b815250611368565b60405163022c0d9f60e01b81526001600160a01b0387169063022c0d9f90610baf906000908590309060040161193f565b600060405180830381600087803b158015610bc957600080fd5b505af1158015610bdd573d6000803e3d6000fd5b50505050610c16604051806040016040528060148152602001737365636f6e6450616972207377617020646f6e6560601b815250611368565b6040516370a0823160e01b81523060048201526000907f00000000000000000000000000000000000000000000000000000000000000006001600160a01b0316906370a0823190602401602060405180830381865afa158015610c7d573d6000803e3d6000fd5b505050506040513d601f19601f82011682018060405250810190610ca19190611909565b9050888111610cea5760405162461bcd60e51b815260206004820152601060248201526f105c989a5d1c9859d94819985a5b195960821b60448201526064015b60405180910390fd5b610d286040518060400160405280601c81526020017f0a2d2d2d2d2d2d2d2d2d2053554343455353202d2d2d2d2d2d2d2d2d00000000815250611368565b610d6060405180604001604052806016815260200175456e64696e672062616c616e6365202020203a20257360501b81525082611323565b6000610d6c828b6112b1565b90506000610d7f6064610314848f611246565b604051632e1a7d4d60e01b8152600481018290529091507f00000000000000000000000000000000000000000000000000000000000000006001600160a01b031690632e1a7d4d90602401600060405180830381600087803b158015610de457600080fd5b505af1158015610df8573d6000803e3d6000fd5b505060405141925083156108fc02915083906000818181858888f19350505050158015610e29573d6000803e3d6000fd5b505050505050505050505050505050565b610e426112c9565b6000836001600160a01b03168383604051610e5d9190611999565b60006040518083038185875af1925050503d8060008114610e9a576040519150601f19603f3d011682016040523d82523d6000602084013e610e9f565b606091505b5050905080610ee75760405162461bcd60e51b8152602060048201526014602482015273115e1d195c9b985b0818d85b1b0819985a5b195960621b6044820152606401610ce1565b50505050565b610ef56112c9565b610eff6000611617565b565b610f096112c9565b6040514790339082156108fc029083906000818181858888f19350505050158015610f38573d6000803e3d6000fd5b5050565b610f6960405180608001604052806000815260200160008152602001600081526020016000151581525090565b6000808315610f9057506903a59afa2ff16d71760090506901e920eb62e7ae40b615610faa565b5069052111f929b0d7e3980090506906323c6a38cb8df4b4875b600080610fc38361031486670de0b6b3a7640000611246565b60408051608081018252958652602086019490945292840192909252501515606082015292915050565b61101a60405180608001604052806000815260200160008152602001600081526020016000151581525090565b600080831561103d57506901e920eb62e7ae40b6159050650fa9cdf89b9f611053565b506906323c6a38cb8df4b487905065160797f643dc5b60006001610fc38361031486670de0b6b3a7640000611246565b6110756112c9565b6040516370a0823160e01b81523060048201526000907f00000000000000000000000000000000000000000000000000000000000000006001600160a01b0316906370a0823190602401602060405180830381865afa1580156110dc573d6000803e3d6000fd5b505050506040513d601f19601f820116820180604052508101906111009190611909565b60405163a9059cbb60e01b8152336004820152602481018290529091507f00000000000000000000000000000000000000000000000000000000000000006001600160a01b03169063a9059cbb906044016020604051808303816000875af1158015611170573d6000803e3d6000fd5b505050506040513d601f19601f82011682018060405250810190610f389190611922565b6000806111a184846102c4565b905060006111af85856103af565b905060006111c382610314856103e8611246565b9695505050505050565b6111d56112c9565b6001600160a01b03811661123a5760405162461bcd60e51b815260206004820152602660248201527f4f776e61626c653a206e6577206f776e657220697320746865207a65726f206160448201526564647265737360d01b6064820152608401610ce1565b61124381611617565b50565b600061125282846119cb565b9392505050565b600061125282846119ea565b60008160000361127757506000919050565b600061128960026103148560016112bd565b9050825b808210156112525750806112aa6002610314836104038882611259565b915061128d565b60006112528284611a0c565b60006112528284611a23565b6000546001600160a01b03163314610eff5760405162461bcd60e51b815260206004820181905260248201527f4f776e61626c653a2063616c6c6572206973206e6f7420746865206f776e65726044820152606401610ce1565b610f388282604051602401611339929190611a67565b60408051601f198184030181529190526020810180516001600160e01b03166309710a9d60e41b179052611667565b6112438160405160240161137c9190611a89565b60408051601f198184030181529190526020810180516001600160e01b031663104c13eb60e21b179052611667565b6113d860405180608001604052806000815260200160008152602001600081526020016000151581525090565b600080836001600160a01b0316630902f1ac6040518163ffffffff1660e01b8152600401606060405180830381865afa158015611419573d6000803e3d6000fd5b505050506040513d601f19601f8201168201806040525081019061143d9190611ab8565b506001600160701b031691506001600160701b0316915061147b604051806040016040528060058152602001643830b4b91d60d91b81525085611688565b6114a6604051806040016040528060098152602001683932b9b2b93b32981d60b91b81525083611323565b6114d1604051806040016040528060098152602001683932b9b2b93b32989d60b91b81525082611323565b600080600090507f00000000000000000000000000000000000000000000000000000000000000006001600160a01b0316866001600160a01b0316630dfe16816040518163ffffffff1660e01b8152600401602060405180830381865afa158015611540573d6000803e3d6000fd5b505050506040513d601f19601f820116820180604052508101906115649190611b08565b6001600160a01b031603611593576115888461031485670de0b6b3a7640000611246565b9150600190506115a9565b610fc38361031486670de0b6b3a7640000611246565b604080516080810182529485526020850193909352918301521515606082015292915050565b6000806115de856103e5611246565b905060006115ec8285611246565b9050600061160083610403886103e8611246565b905061160c81836119ea565b979650505050505050565b600080546001600160a01b038381166001600160a01b0319831681178455604051919092169283917f8be0079c531659141344cd1fd0a4f28419497f9722a3daafe3b4186f6b6457e09190a35050565b80516a636f6e736f6c652e6c6f67602083016000808483855afa5050505050565b610f38828260405160240161169e929190611b25565b60408051601f198184030181529190526020810180516001600160e01b031663319af33360e01b179052611667565b634e487b7160e01b600052604160045260246000fd5b604051601f8201601f1916810167ffffffffffffffff8111828210171561170c5761170c6116cd565b604052919050565b801515811461124357600080fd5b60006080828403121561173457600080fd5b6040516080810181811067ffffffffffffffff82111715611757576117576116cd565b8060405250809150823581526020830135602082015260408301356040820152606083013561178581611714565b6060919091015292915050565b60008061010083850312156117a657600080fd5b6117b08484611722565b91506117bf8460808501611722565b90509250929050565b6001600160a01b038116811461124357600080fd5b6000806000606084860312156117f257600080fd5b83356117fd816117c8565b9250602084013561180d816117c8565b929592945050506040919091013590565b60008060006060848603121561183357600080fd5b833561183e816117c8565b92506020848101359250604085013567ffffffffffffffff8082111561186357600080fd5b818701915087601f83011261187757600080fd5b813581811115611889576118896116cd565b61189b601f8201601f191685016116e3565b915080825288848285010111156118b157600080fd5b80848401858401376000848284010152508093505050509250925092565b6000602082840312156118e157600080fd5b813561125281611714565b6000602082840312156118fe57600080fd5b8135611252816117c8565b60006020828403121561191b57600080fd5b5051919050565b60006020828403121561193457600080fd5b815161125281611714565b92835260208301919091526001600160a01b0316604082015260806060820181905260009082015260a00190565b60005b83811015611988578181015183820152602001611970565b83811115610ee75750506000910152565b600082516119ab81846020870161196d565b9190910192915050565b634e487b7160e01b600052601160045260246000fd5b60008160001904831182151516156119e5576119e56119b5565b500290565b600082611a0757634e487b7160e01b600052601260045260246000fd5b500490565b600082821015611a1e57611a1e6119b5565b500390565b60008219821115611a3657611a366119b5565b500190565b60008151808452611a5381602086016020860161196d565b601f01601f19169290920160200192915050565b604081526000611a7a6040830185611a3b565b90508260208301529392505050565b6020815260006112526020830184611a3b565b80516001600160701b0381168114611ab357600080fd5b919050565b600080600060608486031215611acd57600080fd5b611ad684611a9c565b9250611ae460208501611a9c565b9150604084015163ffffffff81168114611afd57600080fd5b809150509250925092565b600060208284031215611b1a57600080fd5b8151611252816117c8565b604081526000611b386040830185611a3b565b905060018060a01b0383166020830152939250505056fe0a2d2d2d2d2d2d2d2d2d20545241444520414d4f554e5453202d2d2d2d2d2d2d2d2da26469706673582212205e2a06f3505f7dd2ba4a7afef8f52934e41d8c7feb2803e7f6e9adf0ff29826264736f6c634300080f0033",
    "linkReferences": {}
  },
  "methodIdentifiers": {
    "WETH_ADDRESS()": "040141e5",
    "call(address,uint256,bytes)": "6dbf2fa0",
    "executeArbitrage(address,address,uint256)": "650f84be",
    "getAmountIn((uint256,uint256,uint256,bool),(uint256,uint256,uint256,bool))": "eb6b2116",
    "getDenominator((uint256,uint256,uint256,bool),(uint256,uint256,uint256,bool))": "1fa7d39b",
    "getFakePairData(bool)": "ba7f6540",
    "getFlippedFakePairData(bool)": "d22f8c91",
    "getNumerator((uint256,uint256,uint256,bool),(uint256,uint256,uint256,bool))": "00bb7d67",
    "owner()": "8da5cb5b",
    "renounceOwnership()": "715018a6",
    "transferOwnership(address)": "f2fde38b",
    "withdrawETHToOwner()": "77432b8c",
    "withdrawWETHToOwner()": "ea3e506c"
  },
  "id": 24
}