{
  "abi": [
    {
      "inputs": [
        {
          "internalType": "address",
          "name": "_wethAddress",
          "type": "address"
        }
      ],
      "stateMutability": "nonpayable",
      "type": "constructor"
    },
    {
      "anonymous": false,
      "inputs": [
        {
          "indexed": true,
          "internalType": "address",
          "name": "previousOwner",
          "type": "address"
        },
        {
          "indexed": true,
          "internalType": "address",
          "name": "newOwner",
          "type": "address"
        }
      ],
      "name": "OwnershipTransferred",
      "type": "event"
    },
    {
      "inputs": [],
      "name": "WETH_ADDRESS",
      "outputs": [
        {
          "internalType": "address",
          "name": "",
          "type": "address"
        }
      ],
      "stateMutability": "view",
      "type": "function"
    },
    {
      "inputs": [
        {
          "internalType": "address payable",
          "name": "_to",
          "type": "address"
        },
        {
          "internalType": "uint256",
          "name": "_value",
          "type": "uint256"
        },
        {
          "internalType": "bytes",
          "name": "_data",
          "type": "bytes"
        }
      ],
      "name": "call",
      "outputs": [],
      "stateMutability": "nonpayable",
      "type": "function"
    },
    {
      "inputs": [
        {
          "internalType": "address",
          "name": "firstPairAddress",
          "type": "address"
        },
        {
          "internalType": "address",
          "name": "secondPairAddress",
          "type": "address"
        },
        {
          "internalType": "uint256",
          "name": "percentageToPayToCoinbase",
          "type": "uint256"
        }
      ],
      "name": "executeArbitrage",
      "outputs": [],
      "stateMutability": "nonpayable",
      "type": "function"
    },
    {
      "inputs": [
        {
          "components": [
            {
              "internalType": "uint256",
              "name": "reserve0",
              "type": "uint256"
            },
            {
              "internalType": "uint256",
              "name": "reserve1",
              "type": "uint256"
            },
            {
              "internalType": "uint256",
              "name": "price",
              "type": "uint256"
            },
            {
              "internalType": "bool",
              "name": "isWETHZero",
              "type": "bool"
            }
          ],
          "internalType": "struct IPairReserves.PairReserves",
          "name": "firstPairData",
          "type": "tuple"
        },
        {
          "components": [
            {
              "internalType": "uint256",
              "name": "reserve0",
              "type": "uint256"
            },
            {
              "internalType": "uint256",
              "name": "reserve1",
              "type": "uint256"
            },
            {
              "internalType": "uint256",
              "name": "price",
              "type": "uint256"
            },
            {
              "internalType": "bool",
              "name": "isWETHZero",
              "type": "bool"
            }
          ],
          "internalType": "struct IPairReserves.PairReserves",
          "name": "secondPairData",
          "type": "tuple"
        }
      ],
      "name": "getAmountIn",
      "outputs": [
        {
          "internalType": "uint256",
          "name": "",
          "type": "uint256"
        }
      ],
      "stateMutability": "view",
      "type": "function"
    },
    {
      "inputs": [
        {
          "components": [
            {
              "internalType": "uint256",
              "name": "reserve0",
              "type": "uint256"
            },
            {
              "internalType": "uint256",
              "name": "reserve1",
              "type": "uint256"
            },
            {
              "internalType": "uint256",
              "name": "price",
              "type": "uint256"
            },
            {
              "internalType": "bool",
              "name": "isWETHZero",
              "type": "bool"
            }
          ],
          "internalType": "struct IPairReserves.PairReserves",
          "name": "firstPairData",
          "type": "tuple"
        },
        {
          "components": [
            {
              "internalType": "uint256",
              "name": "reserve0",
              "type": "uint256"
            },
            {
              "internalType": "uint256",
              "name": "reserve1",
              "type": "uint256"
            },
            {
              "internalType": "uint256",
              "name": "price",
              "type": "uint256"
            },
            {
              "internalType": "bool",
              "name": "isWETHZero",
              "type": "bool"
            }
          ],
          "internalType": "struct IPairReserves.PairReserves",
          "name": "secondPairData",
          "type": "tuple"
        }
      ],
      "name": "getDenominator",
      "outputs": [
        {
          "internalType": "uint256",
          "name": "",
          "type": "uint256"
        }
      ],
      "stateMutability": "view",
      "type": "function"
    },
    {
      "inputs": [
        {
          "components": [
            {
              "internalType": "uint256",
              "name": "reserve0",
              "type": "uint256"
            },
            {
              "internalType": "uint256",
              "name": "reserve1",
              "type": "uint256"
            },
            {
              "internalType": "uint256",
              "name": "price",
              "type": "uint256"
            },
            {
              "internalType": "bool",
              "name": "isWETHZero",
              "type": "bool"
            }
          ],
          "internalType": "struct IPairReserves.PairReserves",
          "name": "firstPairData",
          "type": "tuple"
        },
        {
          "components": [
            {
              "internalType": "uint256",
              "name": "reserve0",
              "type": "uint256"
            },
            {
              "internalType": "uint256",
              "name": "reserve1",
              "type": "uint256"
            },
            {
              "internalType": "uint256",
              "name": "price",
              "type": "uint256"
            },
            {
              "internalType": "bool",
              "name": "isWETHZero",
              "type": "bool"
            }
          ],
          "internalType": "struct IPairReserves.PairReserves",
          "name": "secondPairData",
          "type": "tuple"
        }
      ],
      "name": "getNumerator",
      "outputs": [
        {
          "internalType": "uint256",
          "name": "",
          "type": "uint256"
        }
      ],
      "stateMutability": "view",
      "type": "function"
    },
    {
      "inputs": [
        {
          "internalType": "contract IERC20[]",
          "name": "tokens",
          "type": "address[]"
        },
        {
          "internalType": "uint256[]",
          "name": "amounts",
          "type": "uint256[]"
        },
        {
          "internalType": "bytes",
          "name": "userData",
          "type": "bytes"
        }
      ],
      "name": "makeFlashLoan",
      "outputs": [],
      "stateMutability": "nonpayable",
      "type": "function"
    },
    {
      "inputs": [],
      "name": "owner",
      "outputs": [
        {
          "internalType": "address",
          "name": "",
          "type": "address"
        }
      ],
      "stateMutability": "view",
      "type": "function"
    },
    {
      "inputs": [
        {
          "internalType": "contract IERC20[]",
          "name": "tokens",
          "type": "address[]"
        },
        {
          "internalType": "uint256[]",
          "name": "amounts",
          "type": "uint256[]"
        },
        {
          "internalType": "uint256[]",
          "name": "feeAmounts",
          "type": "uint256[]"
        },
        {
          "internalType": "bytes",
          "name": "userData",
          "type": "bytes"
        }
      ],
      "name": "receiveFlashLoan",
      "outputs": [],
      "stateMutability": "nonpayable",
      "type": "function"
    },
    {
      "inputs": [],
      "name": "renounceOwnership",
      "outputs": [],
      "stateMutability": "nonpayable",
      "type": "function"
    },
    {
      "inputs": [
        {
          "internalType": "address",
          "name": "newOwner",
          "type": "address"
        }
      ],
      "name": "transferOwnership",
      "outputs": [],
      "stateMutability": "nonpayable",
      "type": "function"
    },
    {
      "inputs": [],
      "name": "withdrawETHToOwner",
      "outputs": [],
      "stateMutability": "nonpayable",
      "type": "function"
    },
    {
      "inputs": [],
      "name": "withdrawWETHToOwner",
      "outputs": [],
      "stateMutability": "nonpayable",
      "type": "function"
    },
    {
      "stateMutability": "payable",
      "type": "receive"
    }
  ],
  "bytecode": {
    "object": "0x60a06040526103e56001553480156200001757600080fd5b50604051620021bf380380620021bf8339810160408190526200003a91620000a9565b80620000463362000059565b6001600160a01b031660805250620000db565b600080546001600160a01b038381166001600160a01b0319831681178455604051919092169283917f8be0079c531659141344cd1fd0a4f28419497f9722a3daafe3b4186f6b6457e09190a35050565b600060208284031215620000bc57600080fd5b81516001600160a01b0381168114620000d457600080fd5b9392505050565b6080516120906200012f600039600081816101160152818161048e015281816106d901528181610c5401528181610df601528181611036015281816110c8015281816112aa015261165801526120906000f3fe6080604052600436106100c55760003560e01c806377432b8c1161007f578063ea3e506c11610059578063ea3e506c1461021a578063eb6b21161461022f578063f04f27071461024f578063f2fde38b1461026f57600080fd5b806377432b8c146101c75780638da5cb5b146101dc578063c9a69562146101fa57600080fd5b8062bb7d67146100d1578063040141e5146101045780631fa7d39b14610150578063650f84be146101705780636dbf2fa014610192578063715018a6146101b257600080fd5b366100cc57005b600080fd5b3480156100dd57600080fd5b506100f16100ec36600461196d565b61028f565b6040519081526020015b60405180910390f35b34801561011057600080fd5b506101387f000000000000000000000000000000000000000000000000000000000000000081565b6040516001600160a01b0390911681526020016100fb565b34801561015c57600080fd5b506100f161016b36600461196d565b6103e2565b34801561017c57600080fd5b5061019061018b3660046119b8565b610476565b005b34801561019e57600080fd5b506101906101ad366004611a69565b610e98565b3480156101be57600080fd5b50610190610f4b565b3480156101d357600080fd5b50610190610f5f565b3480156101e857600080fd5b506000546001600160a01b0316610138565b34801561020657600080fd5b50610190610215366004611bb5565b610f9a565b34801561022657600080fd5b50610190611016565b34801561023b57600080fd5b506100f161024a36600461196d565b61113d565b34801561025b57600080fd5b5061019061026a366004611c33565b6111d6565b34801561027b57600080fd5b5061019061028a366004611ce0565b6113a5565b606082015160009015156001036103805760006102e584600001516102df85602001516102df87600001516102d98a602001516102d960015460015461141e90919063ffffffff16565b9061141e565b90611431565b90506103146040518060400160405280600b81526020016a707265737172743a20257360a81b8152508261143d565b61034f60405180604001604052806011815260200170737172742870726573717274293a20257360781b81525061034a83611482565b61143d565b600061037685600001516102d986602001516102d96103e861037088611482565b906114ce565b92506103dc915050565b60006103b984602001516102df85600001516102df87602001516102d98a600001516102d960015460015461141e90919063ffffffff16565b9050600061037685602001516102d986600001516102d96103e861037088611482565b92915050565b6060820151600090151560010361044557600061043c61041785602001516102d960015460015461141e90919063ffffffff16565b6104366103e86102d9876020015160015461141e90919063ffffffff16565b906114da565b91506103dc9050565b825160015460009161043c9161046091906102d9908061141e565b8451600154610436916103e8916102d99161141e565b6040516370a0823160e01b81523060048201526000907f00000000000000000000000000000000000000000000000000000000000000006001600160a01b0316906370a0823190602401602060405180830381865afa1580156104dd573d6000803e3d6000fd5b505050506040513d601f19601f820116820180604052508101906105019190611cfd565b905061053b604051806040016040528060168152602001755374617274696e672062616c616e636520203a20257360501b8152508261143d565b60408051808201909152601e81527f0a2d2d2d2d2d2d2d2d2d20504149522044415441202d2d2d2d2d2d2d2d2d000060208201528490849061057c906114e6565b600061058783611529565b9050600061059483611529565b90506105d46040518060400160405280601b81526020017f0a2d2d2d2d2d2d2d2d2d20505249434553202d2d2d2d2d2d2d2d2d00000000008152506114e6565b610610604051806040016040528060168152602001756669727374506169722070726963652020203a20257360501b815250836040015161143d565b61064c604051806040016040528060168152602001757365636f6e645061697220707269636520203a20257360501b815250826040015161143d565b6000610658838361113d565b905061067b604051806060016040528060228152602001612039602291396114e6565b6106b360405180604001604052806016815260200175616d6f756e74496e202020202020202020203a20257360501b8152508261143d565b60405163a9059cbb60e01b81526001600160a01b038a81166004830152602482018390527f0000000000000000000000000000000000000000000000000000000000000000169063a9059cbb906044016020604051808303816000875af1158015610722573d6000803e3d6000fd5b505050506040513d601f19601f820116820180604052508101906107469190611d16565b506000808460600151151560011515036109a15761076d8386600001518760200151611750565b91506107828285602001518660000151611750565b90506107bc60405180604001604052806016815260200175666972737450616972416d6f756e744f75743a20257360501b8152508361143d565b6107f46040518060400160405280601681526020017566696e616c416d6f756e744f7574202020203a20257360501b8152508261143d565b6040805180820190915260168152756172622070726f66697420202020202020203a20257360501b602082015261082f9061034a83866114ce565b61086d6040518060400160405280601c81526020017f0a2d2d2d2d2d2d2d2d2d2054524144494e47202d2d2d2d2d2d2d2d2d000000008152506114e6565b60405163022c0d9f60e01b81526001600160a01b0388169063022c0d9f9061089e9060009086908f90600401611d33565b600060405180830381600087803b1580156108b857600080fd5b505af11580156108cc573d6000803e3d6000fd5b5050505061090460405180604001604052806013815260200172666972737450616972207377617020646f6e6560681b8152506114e6565b60405163022c0d9f60e01b81526001600160a01b0387169063022c0d9f906109359084906000903090600401611d33565b600060405180830381600087803b15801561094f57600080fd5b505af1158015610963573d6000803e3d6000fd5b5050505061099c604051806040016040528060148152602001737365636f6e6450616972207377617020646f6e6560601b8152506114e6565b610c3c565b6109b48386602001518760000151611750565b91506109c98285600001518660200151611750565b90506109ec604051806060016040528060228152602001612039602291396114e6565b610a2460405180604001604052806016815260200175616d6f756e74496e202020202020202020203a20257360501b8152508461143d565b610a5c60405180604001604052806016815260200175666972737450616972416d6f756e744f75743a20257360501b8152508361143d565b610a946040518060400160405280601681526020017566696e616c416d6f756e744f7574202020203a20257360501b8152508261143d565b6040805180820190915260168152756172622070726f66697420202020202020203a20257360501b6020820152610acf9061034a83866114ce565b610b0d6040518060400160405280601c81526020017f0a2d2d2d2d2d2d2d2d2d2054524144494e47202d2d2d2d2d2d2d2d2d000000008152506114e6565b60405163022c0d9f60e01b81526001600160a01b0388169063022c0d9f90610b3e9085906000908f90600401611d33565b600060405180830381600087803b158015610b5857600080fd5b505af1158015610b6c573d6000803e3d6000fd5b50505050610ba460405180604001604052806013815260200172666972737450616972207377617020646f6e6560681b8152506114e6565b60405163022c0d9f60e01b81526001600160a01b0387169063022c0d9f90610bd59060009085903090600401611d33565b600060405180830381600087803b158015610bef57600080fd5b505af1158015610c03573d6000803e3d6000fd5b50505050610c3c604051806040016040528060148152602001737365636f6e6450616972207377617020646f6e6560601b8152506114e6565b6040516370a0823160e01b81523060048201526000907f00000000000000000000000000000000000000000000000000000000000000006001600160a01b0316906370a0823190602401602060405180830381865afa158015610ca3573d6000803e3d6000fd5b505050506040513d601f19601f82011682018060405250810190610cc79190611cfd565b9050888111610d105760405162461bcd60e51b815260206004820152601060248201526f105c989a5d1c9859d94819985a5b195960821b60448201526064015b60405180910390fd5b610d4e6040518060400160405280601c81526020017f0a2d2d2d2d2d2d2d2d2d2053554343455353202d2d2d2d2d2d2d2d2d000000008152506114e6565b610d8660405180604001604052806016815260200175456e64696e672062616c616e6365202020203a20257360501b8152508261143d565b6000610d92828b6114ce565b9050610dcc6040518060400160405280601681526020017550726f6669742020202020202020202020203a20257360501b8152508261143d565b6000610ddd60646102df848f61141e565b604051632e1a7d4d60e01b8152600481018290529091507f00000000000000000000000000000000000000000000000000000000000000006001600160a01b031690632e1a7d4d90602401600060405180830381600087803b158015610e4257600080fd5b505af1158015610e56573d6000803e3d6000fd5b505060405141925083156108fc02915083906000818181858888f19350505050158015610e87573d6000803e3d6000fd5b505050505050505050505050505050565b610ea0611798565b6000836001600160a01b03168383604051610ebb9190611d8d565b60006040518083038185875af1925050503d8060008114610ef8576040519150601f19603f3d011682016040523d82523d6000602084013e610efd565b606091505b5050905080610f455760405162461bcd60e51b8152602060048201526014602482015273115e1d195c9b985b0818d85b1b0819985a5b195960621b6044820152606401610d07565b50505050565b610f53611798565b610f5d60006117f2565b565b610f67611798565b6040514790339082156108fc029083906000818181858888f19350505050158015610f96573d6000803e3d6000fd5b5050565b610fa2611798565b604051632e1c224f60e11b815273ba12222222228d8ba445958a75a0704d566bf2c890635c38449e90610fdf903090879087908790600401611dd5565b600060405180830381600087803b158015610ff957600080fd5b505af115801561100d573d6000803e3d6000fd5b50505050505050565b61101e611798565b6040516370a0823160e01b81523060048201526000907f00000000000000000000000000000000000000000000000000000000000000006001600160a01b0316906370a0823190602401602060405180830381865afa158015611085573d6000803e3d6000fd5b505050506040513d601f19601f820116820180604052508101906110a99190611cfd565b60405163a9059cbb60e01b8152336004820152602481018290529091507f00000000000000000000000000000000000000000000000000000000000000006001600160a01b03169063a9059cbb906044016020604051808303816000875af1158015611119573d6000803e3d6000fd5b505050506040513d601f19601f82011682018060405250810190610f969190611d16565b60008061114a848461028f565b905061117b6040518060400160405280600d81526020016c6e756d657261746f723a20257360981b8152508261143d565b600061118785856103e2565b90506111ba6040518060400160405280600f81526020016e64656e6f6d696e61746f723a20257360881b8152508261143d565b60006111cc826102df856103e861141e565b9695505050505050565b3373ba12222222228d8ba445958a75a0704d566bf2c81461124d5760405162461bcd60e51b815260206004820152602b60248201527f466c6173684c6f616e526563697069656e743a2063616c6c6572206973206e6f60448201526a1d081d1a19481d985d5b1d60aa1b6064820152608401610d07565b61127e6040518060400160405280601081526020016f3932b1b2b4bb32a33630b9b42637b0b760811b8152506114e6565b6000806000838060200190518101906112979190611e71565b9250925092506112a8828483610476565b7f00000000000000000000000000000000000000000000000000000000000000006001600160a01b031663a9059cbb73ba12222222228d8ba445958a75a0704d566bf2c8876000815181106112ff576112ff611eb4565b60200260200101518960008151811061131a5761131a611eb4565b602002602001015161132c9190611ee0565b6040516001600160e01b031960e085901b1681526001600160a01b03909216600483015260248201526044016020604051808303816000875af1158015611377573d6000803e3d6000fd5b505050506040513d601f19601f8201168201806040525081019061139b9190611d16565b5050505050505050565b6113ad611798565b6001600160a01b0381166114125760405162461bcd60e51b815260206004820152602660248201527f4f776e61626c653a206e6577206f776e657220697320746865207a65726f206160448201526564647265737360d01b6064820152608401610d07565b61141b816117f2565b50565b600061142a8284611ef8565b9392505050565b600061142a8284611f17565b610f968282604051602401611453929190611f39565b60408051601f198184030181529190526020810180516001600160e01b03166309710a9d60e41b179052611842565b60008160000361149457506000919050565b60006114a660026102df8560016114da565b9050825b8082101561142a5750806114c760026102df836104368882611431565b91506114aa565b600061142a8284611f5b565b600061142a8284611ee0565b61141b816040516024016114fa9190611f72565b60408051601f198184030181529190526020810180516001600160e01b031663104c13eb60e21b179052611842565b61155660405180608001604052806000815260200160008152602001600081526020016000151581525090565b600080836001600160a01b0316630902f1ac6040518163ffffffff1660e01b8152600401606060405180830381865afa158015611597573d6000803e3d6000fd5b505050506040513d601f19601f820116820180604052508101906115bb9190611fa1565b506001600160701b031691506001600160701b031691506115f9604051806040016040528060058152602001643830b4b91d60d91b81525085611863565b611624604051806040016040528060098152602001683932b9b2b93b32981d60b91b8152508361143d565b61164f604051806040016040528060098152602001683932b9b2b93b32989d60b91b8152508261143d565b600080600090507f00000000000000000000000000000000000000000000000000000000000000006001600160a01b0316866001600160a01b0316630dfe16816040518163ffffffff1660e01b8152600401602060405180830381865afa1580156116be573d6000803e3d6000fd5b505050506040513d601f19601f820116820180604052508101906116e29190611ff1565b6001600160a01b03160361171157611706846102df85670de0b6b3a764000061141e565b91506001905061172a565b611727836102df86670de0b6b3a764000061141e565b91505b604080516080810182529485526020850193909352918301521515606082015292915050565b60008061175f856103e561141e565b9050600061176d828561141e565b9050600061178183610436886103e861141e565b905061178d8183611f17565b979650505050505050565b6000546001600160a01b03163314610f5d5760405162461bcd60e51b815260206004820181905260248201527f4f776e61626c653a2063616c6c6572206973206e6f7420746865206f776e65726044820152606401610d07565b600080546001600160a01b038381166001600160a01b0319831681178455604051919092169283917f8be0079c531659141344cd1fd0a4f28419497f9722a3daafe3b4186f6b6457e09190a35050565b80516a636f6e736f6c652e6c6f67602083016000808483855afa5050505050565b610f96828260405160240161187992919061200e565b60408051601f198184030181529190526020810180516001600160e01b031663319af33360e01b179052611842565b634e487b7160e01b600052604160045260246000fd5b604051601f8201601f1916810167ffffffffffffffff811182821017156118e7576118e76118a8565b604052919050565b801515811461141b57600080fd5b60006080828403121561190f57600080fd5b6040516080810181811067ffffffffffffffff82111715611932576119326118a8565b80604052508091508235815260208301356020820152604083013560408201526060830135611960816118ef565b6060919091015292915050565b600080610100838503121561198157600080fd5b61198b84846118fd565b915061199a84608085016118fd565b90509250929050565b6001600160a01b038116811461141b57600080fd5b6000806000606084860312156119cd57600080fd5b83356119d8816119a3565b925060208401356119e8816119a3565b929592945050506040919091013590565b600082601f830112611a0a57600080fd5b813567ffffffffffffffff811115611a2457611a246118a8565b611a37601f8201601f19166020016118be565b818152846020838601011115611a4c57600080fd5b816020850160208301376000918101602001919091529392505050565b600080600060608486031215611a7e57600080fd5b8335611a89816119a3565b925060208401359150604084013567ffffffffffffffff811115611aac57600080fd5b611ab8868287016119f9565b9150509250925092565b600067ffffffffffffffff821115611adc57611adc6118a8565b5060051b60200190565b600082601f830112611af757600080fd5b81356020611b0c611b0783611ac2565b6118be565b82815260059290921b84018101918181019086841115611b2b57600080fd5b8286015b84811015611b4f578035611b42816119a3565b8352918301918301611b2f565b509695505050505050565b600082601f830112611b6b57600080fd5b81356020611b7b611b0783611ac2565b82815260059290921b84018101918181019086841115611b9a57600080fd5b8286015b84811015611b4f5780358352918301918301611b9e565b600080600060608486031215611bca57600080fd5b833567ffffffffffffffff80821115611be257600080fd5b611bee87838801611ae6565b94506020860135915080821115611c0457600080fd5b611c1087838801611b5a565b93506040860135915080821115611c2657600080fd5b50611ab8868287016119f9565b60008060008060808587031215611c4957600080fd5b843567ffffffffffffffff80821115611c6157600080fd5b611c6d88838901611ae6565b95506020870135915080821115611c8357600080fd5b611c8f88838901611b5a565b94506040870135915080821115611ca557600080fd5b611cb188838901611b5a565b93506060870135915080821115611cc757600080fd5b50611cd4878288016119f9565b91505092959194509250565b600060208284031215611cf257600080fd5b813561142a816119a3565b600060208284031215611d0f57600080fd5b5051919050565b600060208284031215611d2857600080fd5b815161142a816118ef565b92835260208301919091526001600160a01b0316604082015260806060820181905260009082015260a00190565b60005b83811015611d7c578181015183820152602001611d64565b83811115610f455750506000910152565b60008251611d9f818460208701611d61565b9190910192915050565b60008151808452611dc1816020860160208601611d61565b601f01601f19169290920160200192915050565b6001600160a01b0385811682526080602080840182905286519184018290526000928782019290919060a0860190855b81811015611e23578551851683529483019491830191600101611e05565b5050858103604087015287518082529082019350915080870160005b83811015611e5b57815185529382019390820190600101611e3f565b50505050828103606084015261178d8185611da9565b600080600060608486031215611e8657600080fd5b8351611e91816119a3565b6020850151909350611ea2816119a3565b80925050604084015190509250925092565b634e487b7160e01b600052603260045260246000fd5b634e487b7160e01b600052601160045260246000fd5b60008219821115611ef357611ef3611eca565b500190565b6000816000190483118215151615611f1257611f12611eca565b500290565b600082611f3457634e487b7160e01b600052601260045260246000fd5b500490565b604081526000611f4c6040830185611da9565b90508260208301529392505050565b600082821015611f6d57611f6d611eca565b500390565b60208152600061142a6020830184611da9565b80516001600160701b0381168114611f9c57600080fd5b919050565b600080600060608486031215611fb657600080fd5b611fbf84611f85565b9250611fcd60208501611f85565b9150604084015163ffffffff81168114611fe657600080fd5b809150509250925092565b60006020828403121561200357600080fd5b815161142a816119a3565b6040815260006120216040830185611da9565b905060018060a01b0383166020830152939250505056fe0a2d2d2d2d2d2d2d2d2d20545241444520414d4f554e5453202d2d2d2d2d2d2d2d2da2646970667358221220f3339f161865b196641314ca806ddadd4aa0d714cd7ad35da496e28f3a660b1164736f6c634300080f0033",
    "linkReferences": {}
  },
  "methodIdentifiers": {
    "WETH_ADDRESS()": "040141e5",
    "call(address,uint256,bytes)": "6dbf2fa0",
    "executeArbitrage(address,address,uint256)": "650f84be",
    "getAmountIn((uint256,uint256,uint256,bool),(uint256,uint256,uint256,bool))": "eb6b2116",
    "getDenominator((uint256,uint256,uint256,bool),(uint256,uint256,uint256,bool))": "1fa7d39b",
    "getNumerator((uint256,uint256,uint256,bool),(uint256,uint256,uint256,bool))": "00bb7d67",
    "makeFlashLoan(address[],uint256[],bytes)": "c9a69562",
    "owner()": "8da5cb5b",
    "receiveFlashLoan(address[],uint256[],uint256[],bytes)": "f04f2707",
    "renounceOwnership()": "715018a6",
    "transferOwnership(address)": "f2fde38b",
    "withdrawETHToOwner()": "77432b8c",
    "withdrawWETHToOwner()": "ea3e506c"
  },
  "id": 26
}