{
  "abi": [
    {
      "inputs": [
        {
          "internalType": "address",
          "name": "_wethAddress",
          "type": "address"
        }
      ],
      "stateMutability": "nonpayable",
      "type": "constructor"
    },
    {
      "anonymous": false,
      "inputs": [
        {
          "indexed": true,
          "internalType": "address",
          "name": "previousOwner",
          "type": "address"
        },
        {
          "indexed": true,
          "internalType": "address",
          "name": "newOwner",
          "type": "address"
        }
      ],
      "name": "OwnershipTransferred",
      "type": "event"
    },
    {
      "inputs": [],
      "name": "WETH_ADDRESS",
      "outputs": [
        {
          "internalType": "address",
          "name": "",
          "type": "address"
        }
      ],
      "stateMutability": "view",
      "type": "function"
    },
    {
      "inputs": [
        {
          "internalType": "address payable",
          "name": "_to",
          "type": "address"
        },
        {
          "internalType": "uint256",
          "name": "_value",
          "type": "uint256"
        },
        {
          "internalType": "bytes",
          "name": "_data",
          "type": "bytes"
        }
      ],
      "name": "call",
      "outputs": [],
      "stateMutability": "nonpayable",
      "type": "function"
    },
    {
      "inputs": [
        {
          "internalType": "address",
          "name": "firstPairAddress",
          "type": "address"
        },
        {
          "internalType": "address",
          "name": "secondPairAddress",
          "type": "address"
        },
        {
          "internalType": "uint256",
          "name": "percentageToPayToCoinbase",
          "type": "uint256"
        }
      ],
      "name": "executeArbitrage",
      "outputs": [],
      "stateMutability": "nonpayable",
      "type": "function"
    },
    {
      "inputs": [],
      "name": "owner",
      "outputs": [
        {
          "internalType": "address",
          "name": "",
          "type": "address"
        }
      ],
      "stateMutability": "view",
      "type": "function"
    },
    {
      "inputs": [],
      "name": "renounceOwnership",
      "outputs": [],
      "stateMutability": "nonpayable",
      "type": "function"
    },
    {
      "inputs": [
        {
          "internalType": "address",
          "name": "newOwner",
          "type": "address"
        }
      ],
      "name": "transferOwnership",
      "outputs": [],
      "stateMutability": "nonpayable",
      "type": "function"
    },
    {
      "inputs": [],
      "name": "withdrawETHToOwner",
      "outputs": [],
      "stateMutability": "nonpayable",
      "type": "function"
    },
    {
      "inputs": [],
      "name": "withdrawWETHToOwner",
      "outputs": [],
      "stateMutability": "nonpayable",
      "type": "function"
    },
    {
      "stateMutability": "payable",
      "type": "receive"
    }
  ],
  "bytecode": {
    "object": "0x60a060405234801561001057600080fd5b5060405161117d38038061117d83398101604081905261002f91610099565b61003833610049565b6001600160a01b03166080526100c9565b600080546001600160a01b038381166001600160a01b0319831681178455604051919092169283917f8be0079c531659141344cd1fd0a4f28419497f9722a3daafe3b4186f6b6457e09190a35050565b6000602082840312156100ab57600080fd5b81516001600160a01b03811681146100c257600080fd5b9392505050565b60805161106961011460003960008181609d015281816101ba0152818161028001528181610503015281816105fd015281816107c1015281816108530152610a4d01526110696000f3fe60806040526004361061007f5760003560e01c806377432b8c1161004e57806377432b8c146101325780638da5cb5b14610147578063ea3e506c14610165578063f2fde38b1461017a57600080fd5b8063040141e51461008b578063650f84be146100db5780636dbf2fa0146100fd578063715018a61461011d57600080fd5b3661008657005b600080fd5b34801561009757600080fd5b506100bf7f000000000000000000000000000000000000000000000000000000000000000081565b6040516001600160a01b03909116815260200160405180910390f35b3480156100e757600080fd5b506100fb6100f6366004610d3f565b61019a565b005b34801561010957600080fd5b506100fb610118366004610d96565b61069f565b34801561012957600080fd5b506100fb610752565b34801561013e57600080fd5b506100fb610766565b34801561015357600080fd5b506000546001600160a01b03166100bf565b34801561017157600080fd5b506100fb6107a1565b34801561018657600080fd5b506100fb610195366004610e63565b6108c8565b6101a2610941565b6040516370a0823160e01b81523060048201526000907f00000000000000000000000000000000000000000000000000000000000000006001600160a01b0316906370a0823190602401602060405180830381865afa158015610209573d6000803e3d6000fd5b505050506040513d601f19601f8201168201806040525081019061022d9190610e80565b90508383600061023c8361099b565b905060006102498361099b565b905060006102578383610b45565b60405163a9059cbb60e01b81526001600160a01b038b81166004830152602482018390529192507f00000000000000000000000000000000000000000000000000000000000000009091169063a9059cbb906044016020604051808303816000875af11580156102cb573d6000803e3d6000fd5b505050506040513d601f19601f820116820180604052508101906102ef9190610e99565b506000808460600151151560011515036103f9576103168386600001518760200151610c09565b915061032b8285602001518660000151610c09565b60405163022c0d9f60e01b81529091506001600160a01b0388169063022c0d9f9061035f9060009086908f90600401610ebb565b600060405180830381600087803b15801561037957600080fd5b505af115801561038d573d6000803e3d6000fd5b505060405163022c0d9f60e01b81526001600160a01b038916925063022c0d9f91506103c29084906000903090600401610ebb565b600060405180830381600087803b1580156103dc57600080fd5b505af11580156103f0573d6000803e3d6000fd5b505050506104eb565b61040c8386602001518760000151610c09565b91506104218285600001518660200151610c09565b60405163022c0d9f60e01b81529091506001600160a01b0388169063022c0d9f906104559085906000908f90600401610ebb565b600060405180830381600087803b15801561046f57600080fd5b505af1158015610483573d6000803e3d6000fd5b505060405163022c0d9f60e01b81526001600160a01b038916925063022c0d9f91506104b89060009085903090600401610ebb565b600060405180830381600087803b1580156104d257600080fd5b505af11580156104e6573d6000803e3d6000fd5b505050505b6040516370a0823160e01b81523060048201526000907f00000000000000000000000000000000000000000000000000000000000000006001600160a01b0316906370a0823190602401602060405180830381865afa158015610552573d6000803e3d6000fd5b505050506040513d601f19601f820116820180604052508101906105769190610e80565b90508881116105bf5760405162461bcd60e51b815260206004820152601060248201526f105c989a5d1c9859d94819985a5b195960821b60448201526064015b60405180910390fd5b60006105cb828b610c57565b905060006105e460646105de848f610c6a565b90610c76565b604051632e1a7d4d60e01b8152600481018290529091507f00000000000000000000000000000000000000000000000000000000000000006001600160a01b031690632e1a7d4d90602401600060405180830381600087803b15801561064957600080fd5b505af115801561065d573d6000803e3d6000fd5b505060405141925083156108fc02915083906000818181858888f1935050505015801561068e573d6000803e3d6000fd5b505050505050505050505050505050565b6106a7610941565b6000836001600160a01b031683836040516106c29190610ee9565b60006040518083038185875af1925050503d80600081146106ff576040519150601f19603f3d011682016040523d82523d6000602084013e610704565b606091505b505090508061074c5760405162461bcd60e51b8152602060048201526014602482015273115e1d195c9b985b0818d85b1b0819985a5b195960621b60448201526064016105b6565b50505050565b61075a610941565b6107646000610c82565b565b61076e610941565b6040514790339082156108fc029083906000818181858888f1935050505015801561079d573d6000803e3d6000fd5b5050565b6107a9610941565b6040516370a0823160e01b81523060048201526000907f00000000000000000000000000000000000000000000000000000000000000006001600160a01b0316906370a0823190602401602060405180830381865afa158015610810573d6000803e3d6000fd5b505050506040513d601f19601f820116820180604052508101906108349190610e80565b60405163a9059cbb60e01b8152336004820152602481018290529091507f00000000000000000000000000000000000000000000000000000000000000006001600160a01b03169063a9059cbb906044016020604051808303816000875af11580156108a4573d6000803e3d6000fd5b505050506040513d601f19601f8201168201806040525081019061079d9190610e99565b6108d0610941565b6001600160a01b0381166109355760405162461bcd60e51b815260206004820152602660248201527f4f776e61626c653a206e6577206f776e657220697320746865207a65726f206160448201526564647265737360d01b60648201526084016105b6565b61093e81610c82565b50565b6000546001600160a01b031633146107645760405162461bcd60e51b815260206004820181905260248201527f4f776e61626c653a2063616c6c6572206973206e6f7420746865206f776e657260448201526064016105b6565b6109c860405180608001604052806000815260200160008152602001600081526020016000151581525090565b600080836001600160a01b0316630902f1ac6040518163ffffffff1660e01b8152600401606060405180830381865afa158015610a09573d6000803e3d6000fd5b505050506040513d601f19601f82011682018060405250810190610a2d9190610f40565b506001600160701b031691506001600160701b03169150600080600090507f00000000000000000000000000000000000000000000000000000000000000006001600160a01b0316866001600160a01b0316630dfe16816040518163ffffffff1660e01b8152600401602060405180830381865afa158015610ab3573d6000803e3d6000fd5b505050506040513d601f19601f82011682018060405250810190610ad79190610f90565b6001600160a01b031603610b0657610afb846105de85670de0b6b3a7640000610c6a565b915060019050610b1f565b610b1c836105de86670de0b6b3a7640000610c6a565b91505b604080516080810182529485526020850193909352918301521515606082015292915050565b6000806103e590506000610b92670de0b6b3a7640000610b8c610b878760400151610b818a60400151610b81898a610c6a90919063ffffffff16565b90610c6a565b610cd2565b90610c57565b90506000610bb986602001516105de670de0b6b3a764000086610c6a90919063ffffffff16565b90506000610be086602001516105de8960400151610b818889610c6a90919063ffffffff16565b90506000610bee8383610d1e565b90506000610bfc8583610c76565b9998505050505050505050565b600080610c18856103e5610c6a565b90506000610c268285610c6a565b90506000610c4083610c3a886103e8610c6a565b90610d1e565b9050610c4c8183610fc3565b979650505050505050565b6000610c638284610fe5565b9392505050565b6000610c638284610ffc565b6000610c638284610fc3565b600080546001600160a01b038381166001600160a01b0319831681178455604051919092169283917f8be0079c531659141344cd1fd0a4f28419497f9722a3daafe3b4186f6b6457e09190a35050565b600081600003610ce457506000919050565b6000610cf660026105de856001610d1e565b9050825b80821015610c63575080610d1760026105de83610c3a8882610c76565b9150610cfa565b6000610c63828461101b565b6001600160a01b038116811461093e57600080fd5b600080600060608486031215610d5457600080fd5b8335610d5f81610d2a565b92506020840135610d6f81610d2a565b929592945050506040919091013590565b634e487b7160e01b600052604160045260246000fd5b600080600060608486031215610dab57600080fd5b8335610db681610d2a565b925060208401359150604084013567ffffffffffffffff80821115610dda57600080fd5b818601915086601f830112610dee57600080fd5b813581811115610e0057610e00610d80565b604051601f8201601f19908116603f01168101908382118183101715610e2857610e28610d80565b81604052828152896020848701011115610e4157600080fd5b8260208601602083013760006020848301015280955050505050509250925092565b600060208284031215610e7557600080fd5b8135610c6381610d2a565b600060208284031215610e9257600080fd5b5051919050565b600060208284031215610eab57600080fd5b81518015158114610c6357600080fd5b92835260208301919091526001600160a01b0316604082015260806060820181905260009082015260a00190565b6000825160005b81811015610f0a5760208186018101518583015201610ef0565b81811115610f19576000828501525b509190910192915050565b80516001600160701b0381168114610f3b57600080fd5b919050565b600080600060608486031215610f5557600080fd5b610f5e84610f24565b9250610f6c60208501610f24565b9150604084015163ffffffff81168114610f8557600080fd5b809150509250925092565b600060208284031215610fa257600080fd5b8151610c6381610d2a565b634e487b7160e01b600052601160045260246000fd5b600082610fe057634e487b7160e01b600052601260045260246000fd5b500490565b600082821015610ff757610ff7610fad565b500390565b600081600019048311821515161561101657611016610fad565b500290565b6000821982111561102e5761102e610fad565b50019056fea26469706673582212209ef8b5ef0f5b755b20d3aec08b9f5bef8b1d8834b282e23949fbcc7dac5122f664736f6c634300080f0033",
    "linkReferences": {}
  },
  "methodIdentifiers": {
    "WETH_ADDRESS()": "040141e5",
    "call(address,uint256,bytes)": "6dbf2fa0",
    "executeArbitrage(address,address,uint256)": "650f84be",
    "owner()": "8da5cb5b",
    "renounceOwnership()": "715018a6",
    "transferOwnership(address)": "f2fde38b",
    "withdrawETHToOwner()": "77432b8c",
    "withdrawWETHToOwner()": "ea3e506c"
  },
  "id": 4
}