{
  "abi": [
    {
      "anonymous": false,
      "inputs": [
        {
          "indexed": true,
          "internalType": "address",
          "name": "previousOwner",
          "type": "address"
        },
        {
          "indexed": true,
          "internalType": "address",
          "name": "newOwner",
          "type": "address"
        }
      ],
      "name": "OwnershipTransferred",
      "type": "event"
    },
    {
      "inputs": [
        {
          "internalType": "address payable",
          "name": "_to",
          "type": "address"
        },
        {
          "internalType": "uint256",
          "name": "_value",
          "type": "uint256"
        },
        {
          "internalType": "bytes",
          "name": "_data",
          "type": "bytes"
        }
      ],
      "name": "call",
      "outputs": [],
      "stateMutability": "nonpayable",
      "type": "function"
    },
    {
      "inputs": [
        {
          "internalType": "address",
          "name": "firstPairAddress",
          "type": "address"
        },
        {
          "internalType": "address",
          "name": "secondPairAddress",
          "type": "address"
        }
      ],
      "name": "getOptimalPositionSizeDoubleHop",
      "outputs": [],
      "stateMutability": "nonpayable",
      "type": "function"
    },
    {
      "inputs": [],
      "name": "owner",
      "outputs": [
        {
          "internalType": "address",
          "name": "",
          "type": "address"
        }
      ],
      "stateMutability": "view",
      "type": "function"
    },
    {
      "inputs": [],
      "name": "renounceOwnership",
      "outputs": [],
      "stateMutability": "nonpayable",
      "type": "function"
    },
    {
      "inputs": [
        {
          "internalType": "address",
          "name": "newOwner",
          "type": "address"
        }
      ],
      "name": "transferOwnership",
      "outputs": [],
      "stateMutability": "nonpayable",
      "type": "function"
    },
    {
      "inputs": [],
      "name": "withdrawWETHToOwner",
      "outputs": [],
      "stateMutability": "nonpayable",
      "type": "function"
    }
  ],
  "bytecode": {
    "object": "0x608060405234801561001057600080fd5b5061001a3361001f565b61006f565b600080546001600160a01b038381166001600160a01b0319831681178455604051919092169283917f8be0079c531659141344cd1fd0a4f28419497f9722a3daafe3b4186f6b6457e09190a35050565b610d528061007e6000396000f3fe608060405234801561001057600080fd5b50600436106100625760003560e01c80636d1512e7146100675780636dbf2fa01461007c578063715018a61461008f5780638da5cb5b14610097578063ea3e506c146100b6578063f2fde38b146100be575b600080fd5b61007a610075366004610a01565b6100d1565b005b61007a61008a366004610a50565b6103de565b61007a610491565b600054604080516001600160a01b039092168252519081900360200190f35b61007a6104a5565b61007a6100cc366004610b1d565b6105a6565b6100d961061f565b6040516370a0823160e01b815230600482015260009073c02aaa39b223fe8d0a0e5c4f27ead9083c756cc2906370a0823190602401602060405180830381865afa15801561012b573d6000803e3d6000fd5b505050506040513d601f19601f8201168201806040525081019061014f9190610b3a565b90508282600061015e83610679565b9050600061016b83610679565b905060006101798383610804565b9050600061019082856000015186602001516108c8565b905060006101a782856020015186600001516108c8565b60405163a9059cbb60e01b81526001600160a01b038c1660048201526024810185905290915073c02aaa39b223fe8d0a0e5c4f27ead9083c756cc29063a9059cbb906044016020604051808303816000875af115801561020b573d6000803e3d6000fd5b505050506040513d601f19601f8201168201806040525081019061022f9190610b53565b50604080516000808252602082019283905263022c0d9f60e01b9092526001600160a01b0389169163022c0d9f9161026f919086908e9060248101610ba1565b600060405180830381600087803b15801561028957600080fd5b505af115801561029d573d6000803e3d6000fd5b5050604080516000808252602082019283905263022c0d9f60e01b9092526001600160a01b038a16935063022c0d9f92506102e091908590309060248101610ba1565b600060405180830381600087803b1580156102fa57600080fd5b505af115801561030e573d6000803e3d6000fd5b50506040516370a0823160e01b81523060048201526000925073c02aaa39b223fe8d0a0e5c4f27ead9083c756cc291506370a0823190602401602060405180830381865afa158015610364573d6000803e3d6000fd5b505050506040513d601f19601f820116820180604052508101906103889190610b3a565b90508881116103d15760405162461bcd60e51b815260206004820152601060248201526f105c989a5d1c9859d94819985a5b195960821b60448201526064015b60405180910390fd5b5050505050505050505050565b6103e661061f565b6000836001600160a01b031683836040516104019190610bf1565b60006040518083038185875af1925050503d806000811461043e576040519150601f19603f3d011682016040523d82523d6000602084013e610443565b606091505b505090508061048b5760405162461bcd60e51b8152602060048201526014602482015273115e1d195c9b985b0818d85b1b0819985a5b195960621b60448201526064016103c8565b50505050565b61049961061f565b6104a36000610919565b565b6104ad61061f565b6040516370a0823160e01b815230600482015260009073c02aaa39b223fe8d0a0e5c4f27ead9083c756cc2906370a0823190602401602060405180830381865afa1580156104ff573d6000803e3d6000fd5b505050506040513d601f19601f820116820180604052508101906105239190610b3a565b60405163a9059cbb60e01b81523360048201526024810182905290915073c02aaa39b223fe8d0a0e5c4f27ead9083c756cc29063a9059cbb906044016020604051808303816000875af115801561057e573d6000803e3d6000fd5b505050506040513d601f19601f820116820180604052508101906105a29190610b53565b5050565b6105ae61061f565b6001600160a01b0381166106135760405162461bcd60e51b815260206004820152602660248201527f4f776e61626c653a206e6577206f776e657220697320746865207a65726f206160448201526564647265737360d01b60648201526084016103c8565b61061c81610919565b50565b6000546001600160a01b031633146104a35760405162461bcd60e51b815260206004820181905260248201527f4f776e61626c653a2063616c6c6572206973206e6f7420746865206f776e657260448201526064016103c8565b61069d60405180606001604052806000815260200160008152602001600081525090565b600080836001600160a01b0316630902f1ac6040518163ffffffff1660e01b8152600401606060405180830381865afa1580156106de573d6000803e3d6000fd5b505050506040513d601f19601f820116820180604052508101906107029190610c29565b506001600160701b031691506001600160701b03169150600073c02aaa39b223fe8d0a0e5c4f27ead9083c756cc26001600160a01b0316856001600160a01b0316630dfe16816040518163ffffffff1660e01b8152600401602060405180830381865afa158015610777573d6000803e3d6000fd5b505050506040513d601f19601f8201168201806040525081019061079b9190610c79565b6001600160a01b0316036107cc576107c5836107bf84670de0b6b3a7640000610969565b9061097c565b90506107e5565b6107e2826107bf85670de0b6b3a7640000610969565b90505b6040805160608101825293845260208401929092529082015292915050565b6000806103e590506000610851670de0b6b3a764000061084b61084687604001516108408a60400151610840898a61096990919063ffffffff16565b90610969565b610988565b906109d4565b9050600061087886602001516107bf670de0b6b3a76400008661096990919063ffffffff16565b9050600061089f86602001516107bf8960400151610840888961096990919063ffffffff16565b905060006108ad83836109e0565b905060006108bb858361097c565b9998505050505050505050565b6000806108d7856103e5610969565b905060006108e58285610969565b905060006108ff836108f9886103e8610969565b906109e0565b9050600061090d838361097c565b98975050505050505050565b600080546001600160a01b038381166001600160a01b0319831681178455604051919092169283917f8be0079c531659141344cd1fd0a4f28419497f9722a3daafe3b4186f6b6457e09190a35050565b60006109758284610cac565b9392505050565b60006109758284610ccb565b60008160000361099a57506000919050565b60006109ac60026107bf8560016109e0565b9050825b808210156109755750806109cd60026107bf836108f9888261097c565b91506109b0565b60006109758284610ced565b60006109758284610d04565b6001600160a01b038116811461061c57600080fd5b60008060408385031215610a1457600080fd5b8235610a1f816109ec565b91506020830135610a2f816109ec565b809150509250929050565b634e487b7160e01b600052604160045260246000fd5b600080600060608486031215610a6557600080fd5b8335610a70816109ec565b925060208401359150604084013567ffffffffffffffff80821115610a9457600080fd5b818601915086601f830112610aa857600080fd5b813581811115610aba57610aba610a3a565b604051601f8201601f19908116603f01168101908382118183101715610ae257610ae2610a3a565b81604052828152896020848701011115610afb57600080fd5b8260208601602083013760006020848301015280955050505050509250925092565b600060208284031215610b2f57600080fd5b8135610975816109ec565b600060208284031215610b4c57600080fd5b5051919050565b600060208284031215610b6557600080fd5b8151801515811461097557600080fd5b60005b83811015610b90578181015183820152602001610b78565b8381111561048b5750506000910152565b84815283602082015260018060a01b03831660408201526080606082015260008251806080840152610bda8160a0850160208701610b75565b601f01601f19169190910160a00195945050505050565b60008251610c03818460208701610b75565b9190910192915050565b80516001600160701b0381168114610c2457600080fd5b919050565b600080600060608486031215610c3e57600080fd5b610c4784610c0d565b9250610c5560208501610c0d565b9150604084015163ffffffff81168114610c6e57600080fd5b809150509250925092565b600060208284031215610c8b57600080fd5b8151610975816109ec565b634e487b7160e01b600052601160045260246000fd5b6000816000190483118215151615610cc657610cc6610c96565b500290565b600082610ce857634e487b7160e01b600052601260045260246000fd5b500490565b600082821015610cff57610cff610c96565b500390565b60008219821115610d1757610d17610c96565b50019056fea2646970667358221220c43c6556c6f138014f93e7e1bcc31e550737cced293c9533c7532290a6f5c4d564736f6c634300080f0033",
    "linkReferences": {}
  },
  "methodIdentifiers": {
    "call(address,uint256,bytes)": "6dbf2fa0",
    "getOptimalPositionSizeDoubleHop(address,address)": "6d1512e7",
    "owner()": "8da5cb5b",
    "renounceOwnership()": "715018a6",
    "transferOwnership(address)": "f2fde38b",
    "withdrawWETHToOwner()": "ea3e506c"
  },
  "id": 24
}